:020000040040BA
:10000000D83A00208904400085044000850440005F
:100010008504400085044000850440000000000085
:100020000000000000000000000000008504400007
:100030008504400000000000850440008504400065
:10004000850440008504400085044000850440008C
:10005000850440008504400085044000850440007C
:10006000850440008504400085044000850440006C
:10007000850440008504400085044000850440005C
:10008000850440008504400085044000850440004C
:100090008504400085044000C907400085044000F5
:1000A000850440008504400085044000850440002C
:1000B000850440008504400085044000850440001C
:1000C000850440008504400085044000850440000C
:1000D00085044000850440008504400085044000FC
:1000E00085044000850440008504400085044000EC
:1000F00085044000850440008504400010B5054C8F
:10010000237833B9044B13B10448AFF300800123C3
:10011000237010BD6C08002000000000843B4000EC
:1001200008B5064B1BB106480649AFF300800648E8
:10013000036813B1054B03B1984708BD00000000E8
:10014000843B400070080020843B40000000000019
:1001500010B50E480E4B98470E4A136843F02543DE
:1001600043F0080313600C4B98470C4A0C4B9A62FF
:100170000C4CA0470028FCD000200B4B98470B4BA1
:1001800098470B48024B984710BD00BF006CDC023B
:100190005906400010140E406D034000013FB805A1
:1001A00000040E407903400009034000710540003F
:1001B0000080DC022DE9F0410C46904660B9002A2F
:1001C0000EDD8F18094E0A4D306821462B6898477E
:1001D0000134BC42F8D106E04FF0FF30BDE8F081B9
:1001E0000020BDE8F0814046BDE8F081C80800204D
:1001F000C00800202DE9F0410E46154601380228BE
:100200000FD892B10024DFF83C800D4FD8F80000E1
:10021000315D3B68984700280ADB0134A542F5D1DF
:100220000AE04FF0FF30BDE8F0810020BDE8F0812A
:100230004FF0FF30BDE8F0812046BDE8F08100BFFF
:10024000C4080020C808002010B54FF400422B4B12
:100250005A600B202A4CA0470C20A047294B4FF492
:1002600080321A61C3F8A0201A6304225A61C3F8CD
:10027000A0205A66C3F890205A655A62C3F88020BD
:100280001A6F22F004021A675A6F22F004025A67AA
:100290004FF4C0621A66C3F890205A655A62C3F8D8
:1002A0008020196F21F4C0611967596F21F4C06172
:1002B00059675A6003F5007301221A66C3F890204B
:1002C0005A655A62C3F88020196F11431967596F34
:1002D00021F0010159675A6002221A66C3F8902082
:1002E0005A655A62C3F88020196F11431967596F14
:1002F00021F0020159675A6010BD00BF50140E4032
:1003000089034000000E0E40174B1A6B22F070025A
:10031000104318639B6E13F0080F09D14FF400636C
:10032000114901E0013B19D08A6E12F0080FF9D093
:100330000D4B1A6B22F0030242F002021A63986E10
:1003400010F008000CD14FF40063074901E0013BB5
:1003500008D08A6E12F0080FF9D07047012070475C
:10036000002070470120704700040E400022014B1E
:100370009A62704700040E40024B986E00F0020033
:10038000704700BF00040E402F280FD81F280FD839
:10039000094B9A69012383401A4093420AD00123F2
:1003A00003FA00F0044B18610020704701207047E9
:1003B000002070470020704700040E4041627047E3
:1003C0008162036A704700BF006A7047006BC0B269
:1003D000704700BF416370474FF0FF338362036A89
:1003E00080230360036B090401F4FE01816008238C
:1003F00003602023036010230360704710B4AC2314
:1004000003600A684B68B2FBF3F31B095C1E4FF6EE
:10041000FE7294420AD803628B68436040F2022362
:10042000C0F8203150230360002000E001205DF877
:10043000044B7047436913F0020F1ABFC1610020DB
:1004400001207047436913F0010F1DBF83690B70D2
:1004500000200120704700BF436913F0020F1DBF49
:10046000C1F30801C161002001207047436913F006
:10047000010F05D08369C3F308030B6000207047A8
:1004800001207047FEE700BF10B52A4B2A4A9A4266
:1004900003D02A4B274A9A4204D3294B294A9A422D
:1004A0000FD31AE0284B294CE41A24F00304043437
:1004B0000023204820495A581A500433A342FAD145
:1004C000EBE7234B2349C91A21F003011A1D1144FC
:1004D000002243F8042F8B42FBD11F4B23F07F01F6
:1004E0001E4A9160EFF3108172B6BFF35F8F002058
:1004F0001B4A10701B4A106840F470001060BFF374
:100500004F8FBFF36F8F29B90121154A1170BFF3C7
:100510005F8F62B603F16043B3F5C03F04D20F4B67
:100520009A6842F000529A600F4B98470F4B9847D9
:10053000FEE700BF00000020843B40006C08002064
:10054000D80A00206C080020040000206F0800205A
:1005500068080020D30A00200000400000ED00E001
:100560000000002088ED00E0050A4000FD08400082
:10057000314B1B6B03F00303012B0FD013B1022B84
:1005800029D042E02D4B5B6913F0800F14BF4FF46C
:1005900000424FF4FA422A4B1A6036E0264B1B6A9F
:1005A00013F0807F03D0274A254B1A602DE0264A9E
:1005B000234B1A60204B1B6A03F07003102B02D0F0
:1005C000202B04D021E0214A1D4B1A601DE0204A57
:1005D0001B4B1A6019E0194B5B6913F0800F14BFB5
:1005E0004FF400424FF4FA42154B1A60124B1B6B4A
:1005F00003F00303022B08D10F4B996A104BC1F390
:100600000B411A6801FB02221A600B4B1B6B03F0B3
:100610007003702B07D10A4B1A680E49A1FB020226
:1006200052081A607047044B196B054BC1F3021155
:100630001A68CA401A60704700040E4010140E4039
:1006400004000020001BB70000127A000024F40010
:1006500000366E01ABAAAAAA0B4B984204D84FF001
:1006600080620A4B1A607047094B984203D8094AC6
:10067000064B1A607047084B984294BF074A084AD5
:10068000024B1A60704700BFFF1AB700000A0E4005
:100690003F787D01000100047FD543020002000481
:1006A00000030004094B1B6813B9094A074B1A6081
:1006B000064B1B681A180749914204DB1046034A8F
:1006C0001060184670474FF0FF30704788080020D0
:1006D000D83A0020FC7F01204FF0FF30704700BF68
:1006E0004FF400534B600020704700BF012070475B
:1006F0000020704770B582B00C4600230193124B66
:10070000984207D11E46114D30462146A847002881
:10071000FAD116E00E4B984207D11E460B4D3046DB
:100720002146A8470028FAD10BE00A4B984208D18D
:100730001E46094D304601A9A8470028FAD1019B61
:10074000237002B070BD00BF00060E40450440009B
:1007500000080E40004002406D04400070B50C4699
:10076000144B984207D11E46134D30462146A847E8
:100770000028FAD115E0114B984207D11E460E4DC4
:1007800030462146A8470028FAD10CE00C4B98428D
:100790000BD11E460B4D30462146A8470028FAD102
:1007A00005E0012070BD012070BD002070BD01205A
:1007B00070BD00BF00060E403504400000080E402A
:1007C000004002405904400038B54048404B98472B
:1007D000044610F0100F16D03E4B1B799BB93B4DD1
:1007E000284610213C4B9847284640F622513B4B67
:1007F0009847384B1A7901321A7100221A805A80B0
:100800003748384B984714F0200F04D03648374DFE
:10081000A8473748A84704F03203122B27D12D4BA5
:100820001B79012B09D12948324B9847294B0002EB
:1008300018801A7901321A7138BD022B0AD1254C61
:10084000258822482B4B9847284320802379013361
:10085000237138BD1F4C258863881D441B48254BD8
:1008600098472544687163880133638038BD40F63A
:10087000050304EA03029A420FD1164B00225A8064
:100880001A711A80114C20461021144B98472046AB
:1008900040F62251104B984738BD04F03003102B1E
:1008A00013D10C4B1B79032B0FD104F48474082C47
:1008B0000BD1084C23886288234413440348597998
:1008C0000D4B984763880133638038BD00000440B6
:1008D000C9034000CC080020C1034000BD03400014
:1008E000403A4000550A4000503A40006D0B40002D
:1008F0006C3A4000CD034000D503400070B584B091
:10090000294B9847294B98470820294CA047294D47
:10091000294B1D60294A2A4B1A602A4A2A4B1A6021
:100920002A4B01934FF4E13302934FF40063039396
:100930000820A047284601A9254B9847254E336833
:1009400098680021244DA847336858680021A847BB
:100950002248234B98471620A047224B03F50071ED
:10096000002203F8012F8B42FBD11F4B00245C8037
:100970001C711C801D481A4B98471D4D284640216C
:100980001C4B984728461C4B98471C4B4FF4800241
:10099000C3F88020C3F8802183F816431A602846E4
:1009A0001021174B9847FEE75101400049024000D3
:1009B0008903400000060E40C80800205D07400083
:1009C000C4080020F5064000C00800200080DC02BA
:1009D000FD034000300400207D0B4000783A4000C9
:1009E0006D0B4000D0080020CC080020D43A400015
:1009F00000000440D9034000CD03400000E100E0C6
:100A0000BD03400070B50F4E0F4D761BB61007D0DA
:100A1000043D0024013455F8043F9847A642F9D11B
:100A20000A4E0B4D761B03F097F8B61008D0043D24
:100A30000024013455F8043F9847A642F9D170BD0F
:100A400070BD00BF643B4000643B40006C3B400015
:100A5000643B40000FB400B5074A83B004AB106894
:100A600053F8042B8168019300F07CF903B05DF822
:100A700004EB04B0704700BF30040020F0B48407DA
:100A800043D0541E002A3ED0CDB2034603E0621E7E
:100A9000002C38D0144603F8015B9A07F7D1032CD9
:100AA0002AD9CDB245EA05250F2C45EA054515D9C9
:100AB000A4F110073F0903F1100606EB07161A46CA
:100AC000156055609560D5601032B242F8D104F0DF
:100AD0000F040137032C03EB07130DD91E462246E2
:100AE000043A032A46F8045BFAD8221F22F00302D4
:100AF0000432134404F003042CB1C9B21C4403F8BB
:100B0000011BA342FBD1F0BC704714460346C6E765
:100B1000F0B5044689B008460D4600F0B7F8A36862
:100B2000114F9A890495022100F1010E012604ADAE
:100B3000029191040590CDF80CE006970796019577
:100B400006D4596E42F4005221F400519A8159663C
:100B50002046194601AA01F0B3FA00280CBF0A206A
:100B60004FF0FF3009B0F0BD043B4000024B01469E
:100B70001868FFF7CDBF00BF3004002000290CBF6C
:100B8000022200224FF4806300F000B82DE9F0410A
:100B90003C4C25688846044616461F4615B1AB6B8B
:100BA000002B4FD0022E30D8002F2EDB28462146B6
:100BB00001F05AF8A38900226260A2611A0628D4C3
:100BC00023F083039BB2022EA3812DD0B8F1000F36
:100BD0003CD0012E13D09BB203F008002A4AEA63EE
:100BE00080B2C4F80080C4F81080676178B113F057
:100BF000030F18BF0027A7600020BDE8F08143F075
:100C000001037A42A381A261E5E74FF0FF30BDE81E
:100C1000F0812846216901F085F9A38923F0830337
:100C20009BB2022EA381D1D1002004F1430243F0F4
:100C3000020300250121A381A56022602261616178
:100C4000BDE8F081284601F02BF8ABE7002F08BF84
:100C50004FF48067384601F05FFC804628B1A389D5
:100C600043F080039BB2A381B3E74FF4806001F0AF
:100C700053FC804618B9A3894FF0FF30D5E74FF4F5
:100C80008067ECE730040020951C400020F0030151
:100C900010F00300C0F1000051F8043B00F1040C17
:100CA0004FEACC0C6FF000021CBF22FA0CF2134387
:100CB0004FF0010C4CEA0C2C4CEA0C4CA3EB0C0250
:100CC00022EA030212EACC1204BF51F8043B0430BA
:100CD000F4D013F0FF0F1FBF013013F47F4F01302A
:100CE00013F47F0F18BF0130704700BF4B6E2DE922
:100CF000F0479C040E46804691462AD593681268B8
:100D000002F1080A1BB31AE9A000BF0817D0043D7E
:100D1000002401E0A74210D0404655F8041F324697
:100D200001F054F8431C04F10104F3D10023C9F885
:100D30000830C9F80430BDE8F087D9F80830A3EBD3
:100D40008703C9F808300AF1080A002BDBD100201C
:100D5000ECE701F0B5F90023C9F80830C9F8043010
:100D6000BDE8F0872DE9F04FB1B01C4602919046E6
:100D70000893069018B1836B002B00F0E880029D69
:100D8000AB899AB2900407D46A6E43F4005322F4FC
:100D90000051AB819AB26966110740F1B780DDF866
:100DA00008B0DBF81030002B00F0B08002F01A021F
:100DB0000A2A00F0B78000230DF180090A931593E9
:100DC00014930993CDF84C904E4698F80030002BC0
:100DD00000F0C484252B00F0C18408F1010201E079
:100DE000252B04D0144601322378002BF8D1C8EB10
:100DF000040595B1149B159AC6F8008001332A4466
:100E0000072B7560159214937BDD002A40F0D48483
:100E10000998149228444E4609902378002B00F03C
:100E2000E98300214FF000024FF0FF3C63788DF81A
:100E3000472004918A4604F101080846654608F1F6
:100E40000108A3F12002582A00F2D582DFE812F04F
:100E5000C702D302D302CE02D302D302D302D302FB
:100E6000D302D3027E028B02D30284008F02D3020C
:100E70002B01940194019401940194019401940133
:100E800094019401D302D302D302D302D302D3023A
:100E9000D302D302D302D3023001D302D302D3024E
:100EA000D302D302D302D302D302D302D3027901F5
:100EB000D302D302D302D302D302A201D302D302BC
:100EC000BD01D302D302D302D302D302D302D30291
:100ED000D302D302D302E201F801D302D302D30238
:100EE0001402F801D302D3021902D30226028900A8
:100EF00064027902D3023802D3021901D302D30269
:100F0000AB02083609982844099086E706980299AA
:100F100000F08EFDB0B9029DAA8902F01A020A2AD9
:100F20007FF449AFDDF808B0BBF90E30002BFFF6B7
:100F300042AF069859464246234600F03DFD31B087
:100F4000BDE8F08F4FF0FF3031B0BDE8F08F00F01A
:100F5000A7FE14E7404208934AF0040A98F80030CC
:100F60006DE71AF020030490AC4600F0F280DDF843
:100F700020B00BF1070323F0070303F108040894E2
:100F8000D3E9004500234FF0000000218DF8470011
:100F9000CDF814C00791BCF1000FA8BF2AF0800A59
:100FA00054EA050240F0AD80BCF1000F40F0A9808A
:100FB000002B40F0BC831AF0010F00F0B88330AF73
:100FC000302307F8413DC7EB09040594DDF814B060
:100FD000079CE345B8BFE346CDF80CB01CB10BF15C
:100FE000010BCDF80CB01AF00205079505D0DDF81D
:100FF0000CB00BF1020BCDF80CB01AF084030B937C
:1010000040F01782049DDDF80CB0CBEB0504002CFA
:1010100040F30F82102C40F38884BD4D159A14982C
:101020002B464FF0100B25466446B4461E4606E09C
:10103000831C0CF1080C0846103D102D11DD411CDD
:101040001032072915928CE840081491F0DD002A2F
:1010500040F0E281103D102D4FF001031046CC46C8
:10106000EDDC31466646A4462C460D462244072B4D
:10107000159235607460149300F369830836591C27
:10108000DAE11AF0200F0490AC4600F08B80089D46
:10109000EB1D23F0070303F1080BD3E90045CDF85E
:1010A00020B001236FE74AF0800A98F80030C6E6C6
:1010B0004AF0100A1AF0200F0490AC468DF8471041
:1010C00000F0C680089CE11D21F00701D1E9002352
:1010D0000831089114461D46002A73F10000C0F241
:1010E000CD83BCF1000F9DF847100791A8BF2AF0EF
:1010F000800A54EA0502CDF814C04FF001033FF412
:1011000053AF012B00F01583022B0DF17F0340F04C
:1011100048820A981946220904F00F0442EA05722F
:101120000F462B09015D397052EA030B14461D4628
:1011300007F1FF31EFD1CDE90E23C7EB090305938A
:1011400044E74AF0100A1AF020030490AC467FF4FA
:101150000EAF1AF0100240F00F831AF0400300F0B7
:101160000B83DDF820B0BBF800400BF1040B1346F5
:101170000025CDF820B006E7A3F13002002018F8D2
:10118000013B00EB800002EB4000A3F13002092A92
:10119000F5D956E64AF0100A1AF0200F0490AC4632
:1011A0007FF475AF1AF0100F40F0EC821AF0400F88
:1011B00000F0E882DDF820B0BBF800400BF1040B32
:1011C00000250123CDF820B0DDE6AC461AF0200F53
:1011D000504D04908DF847100A9500F0EE80089D60
:1011E000EA1D22F00702D2E9004502F1080BCDF812
:1011F00020B01AF0010F00F0A88254EA050B00F0AD
:10120000A48230228DF849304AF0020A8DF8482035
:101210000223B8E6089BDDF820B01B680490012487
:101220004FF000050BF1040B03948DF847508DF837
:101230005830CDF820B0059416AF4FF0000CD2E630
:101240001AF0200F0490AC468DF847107FF43AAFA7
:101250001AF0100F40F0A4821AF0400F00F0A082A4
:10126000DDF820B0BBF900400BF1040BE517224676
:101270002B46CDF820B02FE74AF0400A98F800300E
:10128000DDE598F8003042466C2B03BF08F10108F9
:101290004AF0200A53784AF0100AD0E51AF0200FDD
:1012A0008DF8471000F0F882089C2168099CE5172A
:1012B0002B46089D224604350895C1E9002384E5A4
:1012C000089C04902768AC464FF000058DF8475005
:1012D0000434002F00F03483BCF1000F3846C0F214
:1012E000088362460021CDF804C001F0B9FBDDF8A7
:1012F00004C0002800F03C83C01B6045A8BF6046C6
:101300009DF847500590089407954FF0000C5DE656
:10131000483B4000083B4000089A049030238DF879
:10132000483002F1040B7823AF488DF84930AC46C1
:101330001468CDF820B04AF0020A00250A90022372
:1013400021E64AF0200A98F8003078E5DDF820B070
:10135000DBF8000000280BF10403FFF6FBAD089357
:1013600098F800306BE598F800302B2167E598F885
:1013700000302A2B08F1010400F00983A3F13002A8
:10138000092A98BF002500F2FE8214F8013B05EB04
:10139000850502EB4505A3F13002092AF5D945EA96
:1013A000E575A0464DE5904C04901AF0200FAC4630
:1013B0000A948DF847107FF412AF1AF0100F40F026
:1013C000E9811AF0400F00F0E581DDF820B0BBF8AC
:1013D00000400BF1040B0025CDF820B009E798F888
:1013E000003000297FF42BAD202128E54AF0010AC6
:1013F00098F8003023E504908DF84710002B00F09A
:10140000F98001254FF0000B03958DF858308DF8C9
:1014100047B0059516AF10E70698029913AAFFF793
:1014200065FC002840F0ED801498159A431CCC46CA
:1014300002E6149B159A591C9DF8470068B10132C9
:101440000DF14700012307291592149186E8090040
:1014500000F360810B4608360131079C64B102320B
:1014600012A8022307291592149186E8090000F3B7
:1014700057810B46083601310B9D802D00F001810C
:10148000059DC5EB0C04002C2FDD102C574D22DDE3
:1014900030464FF0100B2E462546069C06E003F121
:1014A000020C08300B46103D102D10DD591C103277
:1014B0000729159280E840081491F0DD002A63D1D5
:1014C000103D102D4FF0010C13464846EEDC2C4623
:1014D00061463546064622440729159235607460F8
:1014E000149100F3C18008360131059D37602A440C
:1014F000072915927560149140F3C180002A40F0CD
:10150000308114924E461AF0040F00F08B80049D37
:10151000DDF80CB0CBEB0504002C40F38380102CDD
:1015200040F322821499324DDDF818A0DDF808B09E
:10153000102705E0881C08361946103C102C10DDD9
:101540004B1C1032072B159286E8A0001493F1DD96
:10155000002A7DD1103C102C4FF0010011464E4660
:10156000EEDC22440728159235607460149059DD32
:10157000002A4FD1099CDDF80CB0049DAB45ACBFEF
:101580005C44641909945EE02046029913AAFFF7AF
:10159000ADFB002835D1149B159A03F1010C484688
:1015A00081E7E00840EA457004F00702E9083032BC
:1015B00050EA010B1F461A7004460D4603F1FF3333
:1015C000EFD11AF0010FCDE90C01394600F0B980D6
:1015D000302A3FF4F8AC1F46C7EB090530230595C8
:1015E00001F8013CF2E400BF1C3B4000383B4000E6
:1015F000483B4000159B23B10698029913AAFFF7B8
:1016000075FB029CA3895B063FF59CAC099831B041
:10161000BDE8F08F0698029913AAFFF767FB002830
:10162000EFD1159A099CDDF80CB0049DAB45ACBF19
:101630005C446419099432B10698029913AAFFF721
:1016400055FB0028DDD1002014904E46FFF7BDBBAE
:101650005046594613AAFFF749FB0028D1D11499E7
:10166000159A481C4E4668E7002A40F0FA80059C0F
:101670002097012321941594224614934E46083650
:1016800041E7049DDDF80CB0CBEB0504002C7FF79F
:10169000F7AE102CA84D40F3748129464FF0100B83
:1016A00025466446B4460E4606E0981C0CF1080C2C
:1016B0000B46103D102D0FDD591C103207291592D5
:1016C0008CE840081491F0DDBAB9103D102D4FF0B0
:1016D00001001346CC46EFDC33466646A4462C4652
:1016E0001D4622440728159235607460149000F35B
:1016F000B2800836411C0346C2E60698029913AA36
:10170000FFF7F4FA00287FF47CAF149B159A581C5D
:10171000CC46CEE7002A7CD119464E4613469CE6BD
:10172000002A40F08780012113464E46A4E64F462A
:101730004CE4002D08BF0A2C49D230AF303407F8F2
:10174000414DC7EB0903059340E402231BE4002A43
:1017500040F0B280134601214E466DE64446FFF745
:101760005CBB0698029913AAFFF7C0FA00287FF421
:1017700048AF159A4E46C6E6089D2C680435089574
:10178000002500E4089D2C680435089501230025F8
:10179000FFF7F9BB089D2C6804350895002528E55E
:1017A000089DDDF820B02C680BF1040BE517CDF88F
:1017B00020B022462B468FE40698029913AAFFF721
:1017C00095FA00287FF41DAF4E46FFF79BBB0DF145
:1017D0007F0B03965E46E346204629460A220023F5
:1017E00001F058FE30323270204629460A2200238A
:1017F00001F050FE04460D4654EA0500374606F156
:10180000FF36E9D1C7EB0903DC46039E0593FFF7DA
:10181000DDBB06980299CDF804C013AAFFF766FA5B
:10182000DDF804C000287FF4ECAE149B159A591C17
:101830004E4612E606980299CDF804C013AAFFF7A7
:1018400055FADDF804C000287FF4DBAE149B159A2E
:10185000591C4E4610E6002A56D1012113464E4629
:101860000EE60698029913AAFFF740FA00287FF4C3
:10187000C8AE1499159A01314E4636E64FF02D0B3D
:10188000644265EB45058DF847B0CDF81CB0CDF846
:1018900014C00123FFF77FBB1AF0100F1DD11AF0FF
:1018A000400F59D0089DDDF824B02B680435089509
:1018B000A3F800B0FFF789BA06980299CDF804C0E2
:1018C00013AAFFF713FADDF804C000287FF499AEDD
:1018D000149B159A591C4E46AEE5DDF820B0099CC4
:1018E000DBF800300BF1040BCDF820B01C60FFF7E3
:1018F0006CBA0894FFF7CAF99DF847400590079421
:101900004FF0000CFFF762BB06980299CDF804C0B7
:1019100013AAFFF7EBF9DDF804C000287FF471AEDD
:10192000149B159A591C4E46AAE5149B159A034D13
:101930000133FFF79BBB00BF383B4000483B4000F2
:10194000BCF1060F34BF63460623089423EAE37410
:1019500005930394164F70E4089C099D2368043492
:1019600008941D60FFF731BA1498124D0130F8E564
:101970009DF84750CDF814C0079508948446FFF7AA
:1019800025BB0846ADE6A0460025FFF75ABADDF8AC
:1019900020B098F80130DBF800500BF10402002D64
:1019A0000892A046BFF64BAA4FF0FF35FFF747BAA3
:1019B000303B4000483B40002DE9F0430C46ADF27F
:1019C0006C4DB1F80C90E769496EB4F80E8019912E
:1019D0001AAD4FF480664FF0000E079729F0020908
:1019E000676A00956946049502960596ADF80C90D5
:1019F000ADF80E800997CDF818E00646FFF7B2F96A
:101A0000051E07DB3046694600F02EF9002818BF96
:101A10004FF0FF35BDF80C305B0603D5A38943F0CA
:101A20004003A38128460DF26C4DBDE8F08300BF52
:101A30002F4B1B6870B506460C4613B19A6B002AF3
:101A400036D0A589ABB219070CD52269AAB113F01B
:101A500001011ED0636900215B42A361A160F2B164
:101A6000002070BDDA063BD55B0725D4226945F01E
:101A70000803A3819BB2002AE9D103F42071B1F5D8
:101A8000007FE4D03046214600F0D6FCA3892269CD
:101A9000DDE7980758BF6169A160002AE0D1A389FA
:101AA0001A06DDD543F04003A3814FF0FF3070BD2F
:101AB000184600F0F5F8C4E7216B49B104F1400382
:101AC000994203D0304600F02DFAA5890023236304
:101AD00025F02405002322696360ADB22260C6E7C9
:101AE00045F04005092333604FF0FF30A58170BDFC
:101AF00030040020024B13B1024800F005B87047D3
:101B0000000000009D1D40000146002002460346E3
:101B100001F0C4BB8B899AB22DE9F0410D46110743
:101B200080463CD46A6843F40063002AAB8159DDE7
:101B3000AC6A002C4BD09BB203F48052002192B2CD
:101B4000D8F80060C8F80010002A4FD02A6D5F074F
:101B500005D569682B6B521A0BB1EB6BD21A404654
:101B6000E9690023A047441C4AD0AA892B692B604D
:101B700022F400639BB200226A60DA04AB814CD489
:101B8000296BC8F8006011B305F14003994202D0F7
:101B9000404600F0C7F900202863BDE8F0812E69B7
:101BA000AEB12C682E6091070CBF6B690023A41B9B
:101BB000AB600AE0324623466F6AE9694046B8479F
:101BC0000028C0EB0404064404DD002CF2DC0020F5
:101BD000BDE8F081AB8943F04003AB814FF0FF30AB
:101BE000BDE8F081EA6B002AA2DCF0E70123404661
:101BF000E969A047431C02461ED0AB89AC6AA6E740
:101C0000D8F800305BB9A9896B6021F400639BB2FE
:101C10002A69AB81DB042A60B2D52865B0E71D2BA9
:101C200001D0162B19D1AA892B692B6022F40062EE
:101C30000023AA816B60A3E7D8F80030002BDCD02A
:101C40001D2B07D0162B05D0AB8943F04003AB8189
:101C5000BDE8F081C8F80060B9E7AB8943F0400304
:101C6000AB81BDE8F08100BF10B5044682B008B179
:101C7000836B53B1B1F90C0008B902B010BD204616
:101C800002B0BDE81040FFF745BF019100F008F831
:101C90000199EFE7014900F09FBB00BFE933400025
:101CA0002DE9F04F846B83B00746002C65D1456861
:101CB0003348F8630423032107F53B72C7F8E412A5
:101CC000C7F8E822C7F8E04205F15C00AB812C6060
:101CD0006C60AC606C66EC812C616C61AC6121461F
:101CE0000822FEF7CBFEBE68DFF898B0DFF898A0B8
:101CF000DFF89890DFF89880ED6101230922C5F89C
:101D000020B0C5F824A0C5F82890C5F82C8021463D
:101D1000F381B28134607460B4607466346174615C
:101D2000B461082206F15C000193FEF7A7FEFD688E
:101D3000F66112200222C6F820B0C6F824A0C6F828
:101D40002890C6F82C802146A881EA812C606C601E
:101D5000AC606C662C616C61AC6105F15C000822C2
:101D6000FEF78CFE019BED61C5F820B0C5F824A0FC
:101D7000C5F82890C5F82C80BB6303B0BDE8F08F90
:101D8000951C4000DD3040000131400039314000F9
:101D900059314000704700BF704700BF38B5094D4A
:101DA000094C641BA41018BF05EB840505D0013C49
:101DB00055F8043D9847002CF9D1BDE8384001F0B2
:101DC000D5BE00BF783B40007C3B40002DE9F04190
:101DD00093890F46990482B01446804606D4526E09
:101DE00043F4005342F40052A381626600F01EFBEC
:101DF00001283DD03A46404601A904F15C0301F0B8
:101E000003FA421C06462CD0002839D09DF8041055
:101E1000002509E023681970236801332360013528
:101E2000B5422DD201ABE95CA368013B002BA36056
:101E3000F0DAA269934205DB2368197023681978E8
:101E40000A29EAD14046224601F08AF9B0F1FF336F
:101E5000584258410028E2D04FF0FF3002B0BDE8B0
:101E6000F081A38943F04003A38102B0BDE8F08173
:101E70007B1EFE2BBED8F9B206468DF80410C7E7CC
:101E8000384602B0BDE8F081F8B5234D0F46044650
:101E900000F028FFAB685E6826F00306F11B01F630
:101EA000EF7121F47F6121F00F01A1F58057B7F5A3
:101EB000805F07DB2046002101F0FEF8AB68334469
:101EC000984204D0204600F00FFF0020F8BD2046C5
:101ED000794201F0F1F801300DD0104BAA68196871
:101EE000F61B46F001062046C91B5660196000F03B
:101EF000FBFE0120F8BD2046002101F0DDF8AB68B3
:101F0000C21A0F2ADEDD064D04492D6842F0010297
:101F1000401B5A600860D5E758040020980800204C
:101F2000640800202DE9F0410D460646002955D0F1
:101F300000F0D8FE55F8041CDFF874C121F001034D
:101F4000A5F10804E218DCF808005768904227F071
:101F5000030769D011F00101576032D00021D01978
:101F60004068C00706D43B44906800294ED0D26830
:101F7000C260906043F001026260E350E1B9B3F5E2
:101F8000007F2DD35A0A042A6AD8980938304100B4
:101F90000CEB810C4649DCF80820624566D051689C
:101FA00021F003018B4202D292689445F7D1D368A5
:101FB000E360A2609C60D4603046BDE8F04100F070
:101FC00093BE55F8085C641B0CF10808A0684045F6
:101FD0002B4443D0E568C560A860C0E7BDE8F08148
:101FE000DB080CEBC3020125DCF804009168A1605A
:101FF0009B1005FA03F31843E260CCF804009460E8
:102000003046CC60BDE8F04100F06EBE294DA842DC
:10201000ADD143F00102CCF81440CCF81040E060A0
:10202000A0606260E350C7E71F44CB0707D455F8B0
:10203000083CE41A1F44A268E368D3609A601E4B10
:102040001B6847F001029F426260CCF80840B3D39E
:102050001A4B30461968FFF717FFADE701217EE7FD
:10206000142A0CD802F15B00410091E74B68801004
:10207000012505FA00F003434B60134698E7542A04
:1020800003D8180B6E30410082E7B2F5AA7F03D85F
:10209000D80B773041007BE740F254518A4203D895
:1020A000980C7C30410073E7FC217E2070E700BF74
:1020B00058040020600400206008002094080020DC
:1020C0002DE9F04F936883B0164681460C462BB33A
:1020D0008B89190726D5226922B303F0020292B236
:1020E0003568002A2CD04FF0000ADFF8E8B2D0465D
:1020F000D84534BF43465B4652464846B8F1000FC8
:102100004FD0E169676AB847002856DDB3681B1AEB
:102110008244C0EB0808B360002BE9D1002003B073
:10212000BDE8F08F48462146FFF782FC002840F0CA
:102130004881A389356803F0020292B2002AD2D105
:1021400013F0010A42D1D046B8F1000F23D09A050E
:10215000A76876D5B845C0F0A48013F4906F40F01E
:10216000B2802068BB4651465A4600F05BFDA2682B
:102170002168D21B01EB0B03A26023604246B368C7
:102180009B1A9244C2EB0808B360002BC6D0A38907
:10219000B8F1000FDBD1D5F800A0D5F804800835E0
:1021A000D2E7D5F800A0D5F804800835A0E7484666
:1021B0002146FFF759FD002859D0A38943F0400379
:1021C0004FF0FF30A38103B0BDE8F08F924601923B
:1021D00093469046B8F1000F2BD0019F002F64D09A
:1021E00020682169D4F808C06269C24534BF5346EB
:1021F000434688421F4603D99444634500F3AE80AA
:10220000934236DB1346676AE16948465A46B84747
:10221000071ED2DDBAEB070A3AD0B368DB1BBB441A
:10222000C7EB0808B360002B3FF478AFB8F1000F9C
:10223000D3D10027D5F800B0D5F804800197083530
:10224000C8E720682369984202D86369984572D22A
:10225000B84538BF47463A46514600F0E3FCA3680C
:102260002268DB1B3A44A3602260002B9FD03A46D1
:1022700085E71A465946009300F0D4FC009BA168FC
:102280002268C91ABAEB070A1344A1602360C4D1BB
:1022900048462146FFF7E8FC00288ED1CDF804A07F
:1022A000BBE720684746C3465DE758460A214246D9
:1022B00000F0D6FB00287FD000F1010A0127CBEB0C
:1022C0000A0A01978CE7226821696769C1EB020C51
:1022D00007EB47070CF1010207EBD77742447F1069
:1022E000974234BF17463A465B054FD511464846DC
:1022F000CDF800C000F018F9DDF800C083460028D2
:1023000062D062462169CDF800C000F0F1FBA289DD
:10231000DDF800C022F4906242F08002A2810BEB53
:102320000C00CCEB0702C4F810B067612060A2601B
:102330004746C34617E76FF00042904538BF424614
:1023400092FBF3F202FB03F3676AE16948465246E7
:10235000B84700287FF731AF024610E7624659467A
:10236000CDF800C000F05EFCDDF800C023686344D7
:10237000236048462146CDF800C0FFF775FCDDF824
:1023800000C000287FF419AF674643E74846CDF800
:1023900000C000F0ABFCDDF800C083460028BED1D1
:1023A00048462169FFF7BEFDA3890C2223F0800374
:1023B0009BB2C9F8002001E7012708F1010A019743
:1023C0000EE74FF0FF30AAE60C23C9F80030A389CE
:1023D000F4E600BF00FCFF7F2DE9F04110F53877EF
:1023E00088461AD000267D68BC68013D0FD4A389B9
:1023F000012B05F1FF3506D9B4F90E300133204623
:1024000001D0C04706436B1C04F16804EFD13F685C
:10241000002FE8D13046BDE8F0813E463046BDE8A9
:10242000F08100BF0048704734040020014B186859
:10243000704700BF54040020F0B58B899AB296070C
:1024400091B00C46054637D4B1F90E10002917DBC0
:1024500001AA00F0D1FF002810DB029B03F47043B7
:10246000B3F500514F424F41B3F5004F2CD0A38933
:1024700043F40063A3814FF480660BE0A3899AB212
:1024800012F0800F43F40063A38114BF40264FF481
:10249000806600272846314600F046F8A3890028C8
:1024A00029D01B4AEA6343F08003A38120602061A6
:1024B0006661A7B911B0F0BD01F1430301220B60C1
:1024C0000B614A6111B0F0BD124AA36A9342CED1AA
:1024D000A3894FF480663343A381E664DAE7284694
:1024E000B4F90E1000F09CFF0028E3D0A38943F05C
:1024F0000103A381DEE79A05DCD404F1430243F033
:1025000002030121A381226022616161D2E700BF41
:10251000951C400039314000024B0146186800F01C
:1025200003B800BF300400202DE9F04F01F10B0586
:10253000162D83B0064627D935F0070527D4A942C2
:1025400025D8304600F0CEFBB5F5FC7F26D2C14F32
:102550004FEAD50C07EBCC03DC689C4200F0D2813B
:102560006368E268A16823F00303234430465D6892
:10257000CA6045F0010591605D6000F0B5FB08346C
:10258000204603B0BDE8F08F1025A942D9D9002418
:102590000C232046336003B0BDE8F08F5FEA552C72
:1025A00000F08A80BCF1040F00F260814FEA951CB4
:1025B0000CF1380C4FEA4C01A64F07EB8101CC68B7
:1025C000A14205D10CE0002B7ADAE468A14207D0E1
:1025D000626822F00302531B0F2BF4DD0CF1FF3C69
:1025E0000CF1010C9B4B3C6903F1080E744500F0A3
:1025F0007E81616821F003014A1B0F2A00F3648188
:10260000002AC3F814E0C3F810E06ADAB1F5007FDD
:1026100080F03A81C90803EBC1004FEAA1085A686B
:102620008168A1604FF0010909FA08F848EA02023E
:10263000E0605A608460CC604FEAAC0301209840AF
:1026400090425BD8024206D12CF0030C40000242BB
:102650000CF1040CFAD007EBCC084446E146E368E1
:102660009C4207D145E1002A80F25681DB689C42FA
:1026700000F03F81596821F003014A1B0F2AF2DD67
:102680001C46D3F80CC054F8088F591945F00109BD
:1026900042F00105C3F804903046C8F80CC0CCF8ED
:1026A000088079613961C1F80CE0C1F808E04D603B
:1026B0008A5000F019FB63E77E214FF03F0C7BE767
:1026C0002244E3685068A16840F00105CB603046C1
:1026D0009960556000F008FB0834204603B0BDE85F
:1026E000F08F214430464B6843F001034B6000F00B
:1026F000FBFA0834204603B0BDE8F08FBC6863687D
:1027000023F00309A94504D3C5EB09030F2B00F3FC
:102710009180514B514A19681368013305EB010A46
:1027200004EB090B00F061810AF5805A0AF10F0AE7
:102730002AF47F6A2AF00F0A30465146019200F0CF
:10274000BBFCB0F1FF3F8046019A00F00081834559
:1027500000F2FA80DFF810C1DCF80030C3455344C2
:10276000CCF8003000F04A8112683C4901321BBFAE
:10277000CBEB080B5B44C1F80080CCF8003018F0BC
:10278000070300F01381C3F10802C3F5805390449E
:102790000833C244CAF30B0ACAEB030A5146304657
:1027A000CDF804C000F088FC431CDDF804C000F044
:1027B0003581C8EB0002524442F00102DCF80030DF
:1027C000C7F808805344BC42C8F80420CCF8003055
:1027D000DFF894A015D0B9F10F0F40F2EA806168DC
:1027E000A9F10C0222F0070201F0010EA118052048
:1027F00042EA0E0E0F2AC4F804E04860886000F236
:102800001181174ABC6811688B4288BF1360154A52
:1028100011688B4288BF1360626822F00302954200
:10282000C5EB020301D80F2B04DC304600F05CFA44
:102830000024A5E6621943F0010345F00105656037
:102840003046BA60536000F04FFA0834204603B0B7
:10285000BDE8F08F58040020940800206408002090
:10286000900800208C08002098080020BCF1140F6C
:1028700061D9BCF1540F00F28F804FEA153C0CF186
:102880006E0C4FEA4C0197E64B0A042B58D9142BD7
:1028900000F2AE8003F15B02500007EB8000DFF82E
:1028A000BC818368834200F08A805A6822F0030268
:1028B000914202D29B689842F7D1D9687A68E16068
:1028C000A3608C60DC60B7E6611942F0010745F057
:1028D00001056560304659611961C1F80CE0C1F825
:1028E00008E04F608A50083400F0FEF948E65A6864
:1028F000A2E609F1010919F0030F04F108047FF4BD
:10290000AEAE2DE004F108036469A34208BF0CF1E8
:10291000020C3FF467AE23E619441C464868DB68A6
:1029200054F8082F40F001054D603046D3609A609E
:1029300000F0DAF924E60CF15B0C4FEA4C013BE6BF
:102940008A0938325000A8E7BC423FF403AFBC68A4
:10295000626822F0030262E7D8F8008098457BD1D4
:102960001CF0030FA8F108030CF1FF3CF4D17B68C5
:1029700023EA00037B60400098423FF6BFAE002888
:102980003FF4BCAE0342CC467FF465AE4000034248
:102990000CF1040CFAD05EE6BCF5AA7F1AD84FEA17
:1029A000D53C0CF1770C4FEA4C0105E64FF480530F
:1029B000EFE60123C8F80430444600222FE79110C7
:1029C0000120D8F8042000FA01F10A43C8F80420D5
:1029D000194674E740F254539C451BD84FEA954C76
:1029E0000CF17C0C4FEA4C01E6E50AF1100AA3E673
:1029F000542B1FD80A0B6E3250004EE7CBF30B015D
:102A000000297FF4B1AE0AEB0901BA6841F0010177
:102A10005160F6E6FC214FF07E0CCDE501224FF02F
:102A2000000ACBE604F108013046FFF77BFADAF83A
:102A30000030E6E6B3F5AA7F03D8CA0B7732500020
:102A40002BE740F25452934203D88A0C7C32500058
:102A500023E7FC207E2220E77B688CE758040020D7
:102A6000830770B4C9B23FD0541E2AB303788B4297
:102A700023D0431C04E0FCB104788C421DD01446E2
:102A800013F0030F184604F1FF3203F10103F2D1F2
:102A9000032C14D8651E4CB303788B420DD0421C16
:102AA000002302E004788C4207D0AB42104603F1C9
:102AB000010302F10102F5D1002070BC704741EA28
:102AC0000126034646EA0646184604330268724069
:102AD000A2F1013525EA020212F0803FDAD1043C6E
:102AE000032C1846F0D8D5E71446D1E72046E4E792
:102AF000844641EA000313F003036DD1403A41D309
:102B000051F8043B40F8043B51F8043B40F8043BC7
:102B100051F8043B40F8043B51F8043B40F8043BB7
:102B200051F8043B40F8043B51F8043B40F8043BA7
:102B300051F8043B40F8043B51F8043B40F8043B97
:102B400051F8043B40F8043B51F8043B40F8043B87
:102B500051F8043B40F8043B51F8043B40F8043B77
:102B600051F8043B40F8043B51F8043B40F8043B67
:102B700051F8043B40F8043B51F8043B40F8043B57
:102B8000403ABDD2303211D351F8043B40F8043BF7
:102B900051F8043B40F8043B51F8043B40F8043B37
:102BA00051F8043B40F8043B103AEDD20C3205D307
:102BB00051F8043B40F8043B043AF9D2043208D0FF
:102BC000D2071CBF11F8013B00F8013B01D30B8871
:102BD00003806046704700BF082A13D38B078DD04F
:102BE00010F003038AD0C3F10403D21ADB071CBF21
:102BF00011F8013B00F8013B80D331F8023B20F88B
:102C0000023B7BE7043AD9D3013A11F8013B00F8C3
:102C1000013BF9D20B7803704B7843708B7883704B
:102C2000604670478842F0B410D98C18A0420DD28B
:102C30008518531E42B121462A4611F8014D02F86B
:102C4000014D013B5C1CF8D1F0BC70470F2A3FD905
:102C500040EA01039B073FD1A2F110073F0900EBB7
:102C6000071610360C46034625681D6065685D60D2
:102C7000A5689D60E568DD601033B34204F110047F
:102C8000F2D17B1C02F00F0C1B01BCF1030F1944A5
:102C9000034423D90E461D466446043C56F8047B83
:102CA00045F8047B032CF8D8ACF1040424F00304A9
:102CB000043402F0030223442144002AC4D01A44FD
:102CC00011F8014B03F8014B9342F9D1F0BC704766
:102CD0000346002AF3D1B7E70346F0E76246002A2D
:102CE000EDD1B1E7704700BF704700BF2DE9F04F4D
:102CF0000C4683B090468146002900F0E280FFF741
:102D0000F1FF08F10B0654F8043C162E23F00305DE
:102D1000A4F108074BD810210E46B0454CD88D427F
:102D200078DADFF890B3DBF808E07819864500F030
:102D3000CE80426822F0010C8444DCF804C01CF010
:102D4000010F7AD000221046DB0700F1928054F880
:102D5000083CC3EB070ADAF8043023F003032B44E2
:102D600088B3704500F0ED8002EB030E8E452ADB40
:102D7000C36882685746D3609A6057F8081FDAF82C
:102D80000C30CB602A1F242A996000F22681132A76
:102D900040F2B3802368CAF808306368CAF80C3080
:102DA0001B2A00F2308108340AF11003A6E026F055
:102DB0000706002E3146B0DA0C230020C9F8003097
:102DC00003B0BDE8F08F8B4253DB5746DAF80C10A6
:102DD00057F8080F2A1F242AC160886000F2098171
:102DE000132A40F204812168CAF808106168CAF801
:102DF0000C101B2A00F21C8108340AF11002216811
:102E0000116061685160A16891601D46DAF8043074
:102E10003C465746AA1B0F2A03F0010319D82B433F
:102E20003D447B606B6843F001036B604846FFF7ED
:102E30005BFF204603B0BDE8F08F22F0030202EBF7
:102E4000050C8C4580DBC26881686546CA6091606C
:102E5000E0E7B91942F001001E430A447E60486071
:102E6000536843F00103083153604846FFF75AF8AE
:102E7000DCE741464846FFF757FB8046D0B154F89F
:102E8000043C23F001023A44A0F10801914200F011
:102E90009E802A1F242A50D8132A23D8034622466C
:102EA000116819605168596092689A6021464846D5
:102EB000FFF738F84846FFF717FF404603B0BDE874
:102EC000F08F114603B0BDE8F04FFFF72DBBDEF8E1
:102ED000042022F00302501906F1100C604519DAA3
:102EE000704631E723680360636843601B2A63D838
:102EF00000F1080304F10802D2E73B4622681A6099
:102F000062685A60A2689A603C467546DAF80430F6
:102F100057467FE73744831B43F00103CBF8087023
:102F20007B6054F8043C03F001031E43484644F818
:102F3000046CFFF7D9FE20467CE72146FFF772FEBE
:102F4000B4E702EB030C06F110029445FFF63BAF29
:102F50005746DAF80C3057F8081F2A1F242ACB608E
:102F6000996000F28780132A78D92368CAF808305C
:102F70006368CAF80C301B2A00F2858008340AF115
:102F8000100322681A6062685A60A2689A600AEBAD
:102F90000603C6EB0C0242F00102CBF808305A607F
:102FA000DAF8043003F001031E434846CAF804600F
:102FB000FFF79AFE38463DE7A3688360E368C36085
:102FC000242A2CD000F1100304F1100268E750F815
:102FD000042C22F0030215441CE7214638467546AE
:102FE0003C46FFF71FFE5746DAF8043012E73A4630
:102FF00005E7214638461D463C46FFF713FE574677
:10300000DAF8043006E7A368CAF81030E368CAF8B3
:103010001430242A18D010340AF118036EE72369FB
:1030200003616369436104F1180200F1180337E793
:10303000A168CAF81010E168CAF81410242A0FD049
:1030400010340AF11802DAE62369CAF81830636905
:10305000CAF81C3018340AF120034FE73B4690E7CA
:103060002269CAF818206269CAF81C2018340AF1CB
:103070002002C4E621463846CDF804C0FFF7D2FD51
:10308000DDF804C083E7A368CAF81030E368CAF823
:103090001430242A03D010340AF1180371E723698D
:1030A000CAF818306369CAF81C3018340AF12003D2
:1030B00067E700BF5804002038B5074C00230546D9
:1030C00008462360FDF7EEFA431C00D038BD2368A4
:1030D000002BFBD02B6038BDD40A002010B50C4665
:1030E000B1F90E1000F0C2F9002803DB236D034490
:1030F000236510BDA38923F48053A38110BD00BFB5
:103100002DE9F0410C4689891D46CB051646074638
:1031100006D5B4F90E100022022300F093F9A1891C
:1031200021F48051A1813846B4F90E1032462B4665
:10313000BDE8F04100F09EB810B50C46B1F90E1094
:1031400000F080F9A389421C0EBF23F4805343F49E
:1031500080532065A38110BDB1F90E1000F0F2B8C4
:10316000F8B50D461446074610B1836B002B48D0C6
:10317000A289A369A36093B2180738D52669002EE7
:1031800035D09904EDB215D5236862699E1B96422D
:103190001CDA0136A268591C013AA26021601D7038
:1031A0006369B3421AD0A389DB0701D50A2D15D074
:1031B0002846F8BD636E23F4005342F40052636660
:1031C0002368A28162699E1B9642E2DB3846214653
:1031D000FEF74AFD40B923680126DBE73846214661
:1031E000FEF742FD0028E3D04FF0FF30F8BD38462F
:1031F0002146FEF71DFC0028F6D1A289266993B26C
:10320000BFE7FEF74DFDB3E72DE9F0411E4686B05E
:103210000C46054617460F4B91B1D3F80080FFF7D7
:1032200001F90096034621463A462846C047431C0A
:1032300003D100228A2332602B6006B0BDE8F08102
:103240001F68FFF7EFF8009603462246284603A9B9
:10325000B847ECE76808002021B1FF2A04D80A70BB
:1032600001207047084670478A2303604FF0FF3003
:10327000704700BF70B5084C064600250846114649
:103280001A462560FCF7B6FF431C00D070BD2368CA
:10329000002BFBD0336070BDD40A0020F0B5274C62
:1032A0002668D6F8484185B00746002C41D06568AD
:1032B0001F2D1EDD224818B94FF0FF3005B0F0BDBC
:1032C0004FF4C870039102920193FFF725F9039917
:1032D000029A019B04460028EED0D6F8485125609A
:1032E000002060600546C6F84841C4F88801C4F86B
:1032F0008C013FB9AB1C00200135656044F82310F8
:1033000005B0F0BD04EB85004FF0010CC0F888203B
:10331000D4F888610CFA05F21643022FC4F88861CC
:10332000C0F80831E6D1D4F88C311A43C4F88C21A6
:10333000E0E706F5A674C6F84841B8E7003B400050
:103340001925400038B5074C002305460846236080
:10335000FDF7C2F9431C00D038BD2368002BFBD019
:103360002B6038BDD40A002070B50C46054631B13B
:1033700010B1836B002B2FD0B4F90C300BB90020A7
:1033800070BD28462146FEF76FFCE36A064633B15E
:103390002846E16998470028B8BF4FF0FF36A38957
:1033A0001B061CD4216B41B104F14003994202D0A9
:1033B0002846FEF7B7FD00232363616C21B1284640
:1033C000FEF7B0FD00236364FEF7E4FC0023A38155
:1033D000FEF7E2FC304670BDFEF762FCCCE7284603
:1033E0002169FEF79FFDDDE7024B01461868FFF7F4
:1033F000BBBF00BF3004002038B5084C0023054691
:10340000084611462360FDF76BF9431C00D038BD18
:103410002368002BFBD02B6038BD00BFD40A0020EE
:1034200038B5074C0023054608462360FDF75EF9D2
:10343000431C00D038BD2368002BFBD02B6038BD67
:10344000D40A002070B5084C0646002508461146EF
:103450001A462560FDF74CF9431C00D070BD236867
:10346000002BFBD0336070BDD40A002070B5084C2F
:1034700006460025084611461A462560FCF79AFEC6
:10348000431C00D070BD2368002BFBD0336070BD9F
:10349000D40A00204BB942B9002908BF002802D045
:1034A0004FF0FF31084600F03BB882B0EC462DE902
:1034B000005000F01DF8DDF804E002B00CBC7047CD
:1034C0002DE97043069E14461D468046894600F04D
:1034D00029F804FB01F300FB0533A4FB00451D4460
:1034E000B8EB040469EB0505C6E90045BDE8708347
:1034F0002DE97043069E1446804689461D4600F01D
:103500005DF900FB05F504FB0153A0FB04451D44D8
:10351000B8EB040469EB0505C6E90045BDE8708316
:10352000704700BF00292DE9F00FC0F29F800024F2
:10353000002BC0F29680154606460F46002B3ED162
:103540008A4257D9B2FA82F34BB1C3F1200201FA91
:1035500003F720FA02F29D40174300FA03F6290C04
:10356000B7FBF1F2330C01FB127CA8B243EA0C4723
:1035700000FB02F3BB4209D97F1902F1FF3C80F046
:103580000181BB4240F2FE80023A2F44FF1AB7FB92
:10359000F1F3B6B201FB137146EA014100FB03F0FF
:1035A000884208D9491903F1FF3780F0ED8088423D
:1035B00040F2EA80023B43EA0242002303E08B42EE
:1035C0000AD900231A461046194614B1404261EB4D
:1035D0004101BDE8F00F7047B3FA83F8B8F1000F6E
:1035E00040F084808B4202D3824200F2DE800023CE
:1035F0000122E8E712B90123B3FBF2F5B5FA85F22F
:10360000002A39D17F1B280C1FFA85FC0123B7FB48
:10361000F0F1320C00FB117742EA07470CFB01F294
:10362000BA4207D97F1901F1FF3802D2BA4200F23B
:10363000C1804146BF1AB7FBF0F2B6B200FB127070
:1036400046EA00400CFB02FC844507D9401902F110
:10365000FF3702D2844500F2AB803A4642EA01428B
:10366000B1E7E443524263EB430364E7404261EB5A
:1036700041014FF0FF345BE79540C2F1200327FA88
:1036800003F1280C26FA03F39740B1FBF0F81F432F
:103690003B0C00FB18111FFA85FC43EA01410CFBAF
:1036A00008F38B4206FA02F608D9491908F1FF32ED
:1036B00079D28B4277D9A8F102082944C91AB1FB03
:1036C000F0F3BFB200FB131147EA01470CFB03F212
:1036D000BA4207D97F1903F1FF3160D2BA425ED9ED
:1036E000023B2F44BF1A43EA084390E7C8F1200287
:1036F00003FA08FC25FA02F343EA0C0C4FEA1C49D2
:1037000021FA02F301FA08F720FA02F2B3FBF9F109
:10371000174309FB11333A0C1FFA8CFB42EA0343AF
:103720000BFB01FA9A4505FA08F008D913EB0C03D4
:1037300001F1FF3235D29A4533D902396344CAEBDD
:103740000303B3FBF9F209FB1233BFB247EA0347A5
:103750000BFB02F9B94508D917EB0C0702F1FF334F
:103760001BD2B94519D9023A674442EA0145A5FB83
:103770000001C9EB07078F424FF000030AD305D0C1
:103780002A4620E7624601E73B4614E706FA08F6B8
:103790008642F5D26A1E002315E71A46E5E70B4676
:1037A000A0E71146CBE7904688E7434642460AE742
:1037B000023A53E702392F443CE700BF2DE9F00FEE
:1037C000144605460E46002B43D18A4253D9B2FA1D
:1037D00082F757B1C7F1200620FA06F601FA07F37F
:1037E00002FA07F41E4300FA07F5210CB6FBF1F2CA
:1037F0002B0C01FB1267A0B243EA074600FB02F361
:10380000B34209D9361902F1FF3780F0F680B3428E
:1038100040F2F380023A2644F61AB6FBF1F3ADB259
:1038200001FB136145EA014100FB03F0884208D91E
:10383000091903F1FF3680F0E280884240F2DF8010
:10384000023B43EA0242002310461946BDE8F00F4E
:1038500070478B424AD8B3FA83F6002E4DD18B4283
:1038600002D3824200F2D68000230122104619467C
:10387000BDE8F00F704712B90124B4FBF2F4B4FABA
:1038800084F2002A7CD1091B260CA7B20123B1FBCC
:10389000F6F02A0C06FB101142EA014107FB00F288
:1038A0008A4207D9091900F1FF3C02D28A4200F28C
:1038B000C3806046891AB1FBF6F2ADB206FB121165
:1038C00045EA014507FB02F7AF4208D92C1902F17E
:1038D000FF3180F09680A74240F29380023A42EA9C
:1038E000004210461946BDE8F00F704700231A4603
:1038F00010461946BDE8F00F7047C6F1200522FAC0
:1039000005F4B3401C434FEA144821FA05F301FAC9
:1039100006F720FA05F5B3FBF8FC2F4308FB1C3330
:103920003D0C1FFA84FA45EA03430AFB0CF999455A
:1039300002FA06FB04D91B190CF1FF326DD3944631
:10394000C9EB0303B3FBF8F508FB1533BFB247EA35
:1039500003470AFB05F8B84504D93F1905F1FF33C1
:1039600061D31D4645EA0C4CACFB0B23C8EB0707A3
:103970009F424FF0000549D345D062462B4663E78E
:103980009440C2F1200321FA03FC260C20FA03F331
:1039900001FA02F5BCFBF6F843EA05010B0C06FB45
:1039A00018CCA7B243EA0C4C07FB08F3634500FAB6
:1039B00002F509D91CEB040C08F1FF323AD2634539
:1039C00038D9A8F10208A444C3EB0C0CBCFBF6F3F5
:1039D00089B206FB13CC41EA0C4107FB03F28A4291
:1039E00007D9091903F1FF3022D28A4220D9023BBC
:1039F0002144891A43EA084349E73A460CE733462B
:103A00001FE70A466BE7B0409042B6D20CF1FF3296
:103A1000002319E73346324616E799458FD9ACF1B2
:103A2000020C23448CE7B8459BD9023D274499E713
:103A30000346DEE79046C7E7023821443AE700BF75
:103A40000A0A456E64657265636F0A0A0000000029
:103A500047656E6572616C2043616C6C20547265C1
:103A600061746D656E740A0D000000006E6F742045
:103A700074726561746564002D2D54574920534C50
:103A8000415645204578616D706C65202D2D0D0ADD
:103A90002D2D2053414D4735335F58504C41494EF1
:103AA00045445F50524F202D2D0D0A2D2D20436F80
:103AB0006D70696C65643A204E6F76203132203229
:103AC0003031342032313A34343A3035202D2D0D16
:103AD000000000002D492D20436F6E6669677572E6
:103AE000696E67207468652054574920696E207399
:103AF0006C617665206D6F64650A0D0043000000FF
:103B0000080000200A0000003031323334353637E7
:103B100038394142434445460000000030313233D9
:103B200034353637383961626364656600000000F9
:103B3000286E756C6C2900003030303030303030F9
:103B400030303030303030302020202020202020F5
:103B50002020202020202020F8B500BFF8BC08BC81
:103B60009E467047F51A400021014000F8B500BF9D
:0C3B7000F8BC08BC9E467047FD004000F9
:083B7C00A8F9FF7F0100000021
:103B84000100000000127A0000000000F40200208E
:103B94005C030020C40300200000000000000000BB
:103BA4000000000000000000000000000000000011
:103BB400000000000000000000000000FC3A40008B
:103BC40000000000000000000000000000000000F1
:103BD40000000000000000000000000000000000E1
:103BE40000000000000000000000000000000000D1
:103BF40000000000000000000000000000000000C1
:103C040000000000000000000000000000000000B0
:103C140000000000000000000000000000000000A0
:103C24000000000000000000000000000000000090
:103C340001000000000000000E33CDAB34126DE62D
:103C4400ECDE05000B000000000000000000000096
:103C54000000000000000000000000000000000060
:103C64000000000000000000000000000000000050
:103C74000000000000000000000000000000000040
:103C84000000000000000000000000000000000030
:103FB400080000204153434949000000000000006C
:103FC40000000000000000000000000000000000ED
:103FD40000000000010000000000000000000000DC
:103FE40058040020580400206004002060040020CD
:103FF400680400206804002070040020700400207D
:10400400780400207804002080040020800400202C
:1040140088040020880400209004002090040020DC
:104024009804002098040020A0040020A00400208C
:10403400A8040020A8040020B0040020B00400203C
:10404400B8040020B8040020C0040020C0040020EC
:10405400C8040020C8040020D0040020D00400209C
:10406400D8040020D8040020E0040020E00400204C
:10407400E8040020E8040020F0040020F0040020FC
:10408400F8040020F80400200005002000050020AA
:104094000805002008050020100500201005002058
:1040A4001805002018050020200500202005002008
:1040B40028050020280500203005002030050020B8
:1040C4003805002038050020400500204005002068
:1040D4004805002048050020500500205005002018
:1040E40058050020580500206005002060050020C8
:1040F4006805002068050020700500207005002078
:104104007805002078050020800500208005002027
:1041140088050020880500209005002090050020D7
:104124009805002098050020A0050020A005002087
:10413400A8050020A8050020B0050020B005002037
:10414400B8050020B8050020C0050020C0050020E7
:10415400C8050020C8050020D0050020D005002097
:10416400D8050020D8050020E0050020E005002047
:10417400E8050020E8050020F0050020F0050020F7
:10418400F8050020F80500200006002000060020A5
:104194000806002008060020100600201006002053
:1041A4001806002018060020200600202006002003
:1041B40028060020280600203006002030060020B3
:1041C4003806002038060020400600204006002063
:1041D4004806002048060020500600205006002013
:1041E40058060020580600206006002060060020C3
:1041F4006806002068060020700600207006002073
:104204007806002078060020800600208006002022
:1042140088060020880600209006002090060020D2
:104224009806002098060020A0060020A006002082
:10423400A8060020A8060020B0060020B006002032
:10424400B8060020B8060020C0060020C0060020E2
:10425400C8060020C8060020D0060020D006002092
:10426400D8060020D8060020E0060020E006002042
:10427400E8060020E8060020F0060020F0060020F2
:10428400F8060020F80600200007002000070020A0
:10429400080700200807002010070020100700204E
:1042A40018070020180700202007002020070020FE
:1042B40028070020280700203007002030070020AE
:1042C400380700203807002040070020400700205E
:1042D400480700204807002050070020500700200E
:1042E40058070020580700206007002060070020BE
:1042F400680700206807002070070020700700206E
:10430400780700207807002080070020800700201D
:1043140088070020880700209007002090070020CD
:104324009807002098070020A0070020A00700207D
:10433400A8070020A8070020B0070020B00700202D
:10434400B8070020B8070020C0070020C0070020DD
:10435400C8070020C8070020D0070020D00700208D
:10436400D8070020D8070020E0070020E00700203D
:10437400E8070020E8070020F0070020F0070020ED
:10438400F8070020F807002000080020000800209B
:104394000808002008080020100800201008002049
:1043A40018080020180800202008002020080020F9
:1043B40028080020280800203008002030080020A9
:1043C4003808002038080020400800204008002059
:1043D4004808002048080020500800205008002009
:0C43E40000000200FFFFFFFF5932400004
:04000005004004892A
:00000001FF
