S01E00005457495F5457495F454550524F4D5F4558414D504C452E737265632D
S214400000683900205D084000590840005908400003
S21440001059084000590840005908400000000000B8
S21440002000000000000000000000000059084000EA
S214400030590840000000000059084000ED0D4000FF
S21440004059084000590840005908400059084000E7
S21440005059084000590840005908400059084000D7
S21440006059084000590840005908400059084000C7
S21440007059084000590840005908400059084000B7
S21440008059084000590840005908400059084000A7
S2144000905908400059084000590840005908400097
S2144000A05908400059084000590840005908400087
S2144000B05908400059084000590840005908400077
S2144000C05908400059084000590840005908400067
S2144000D05908400059084000590840005908400057
S2144000E05908400059084000590840005908400047
S2144000F059084000590840005908400008B50548CE
S214400100054B191A062900D808BD044A002AFBD018
S2144001109047F9E7C83B4000CB3B4000000000005A
S21440012008B50748074B191A8A1002EBD2735910C4
S21440013000D108BD044A002AFBD09047F9E700BF2B
S214400140C83B4000C83B40000000000010B5064CCD
S214400150237843B9FFF7D2FF044810B10448AFF301
S21440016000800121217010BDD8080020000000004A
S214400170C83B400008B5084B1BB108480849AFF3D8
S21440018000800848016811B1074A02B19047BDE8AF
S2144001900840FFF7C5BF00BF00000000C83B400056
S2144001A0DC080020C83B40000000000010B54FF4BB
S2144001B00040C0F2DC2040F68533C0F2400398474A
S2144001C041F21040C4F20E00026842F0254141F070
S2144001D00804046040F2B543C0F2400398474FF429
S2144001E08060C4F20E0043F60172C0F2B8528262DA
S2144001F040F2C544C0F24004A0470028FCD04FF06F
S214400200000040F21541C0F24001884740F64123C5
S214400210C0F24003984710BD2DE9F8430C4690467F
S21440022048BB002A2BDD8F1840F66016C2F2000647
S21440023040F65815C2F200056FEA010907EB0900BF
S21440024000F0010930682B68984704F10104BC426D
S21440025019D10DE030682B682146984704F1010417
S214400260214630682A68904704F10104BC42F1D127
S2144002704046BDE8F8834FF0FF30BDE8F8834FF0C6
S2144002800000BDE8F883B9F1000FE3D030682A6873
S2144002902146904704F10104BC42DBD1E8E700BFA9
S2144002A02DE9F8430D46904600F1FF30022824D849
S2144002B032B340F66016C2F2000640F65C17C2F251
S2144002C000074FF0000402F1FF3909F001093068D9
S2144002D03B68095D9847A0421ADA14E030683B68EC
S2144002E0295D984700280EDB04F1010430683A681F
S2144002F0295D904700281DDA05E04FF0FF3404E002
S2144003004FF0000401E04FF0FF342046BDE8F8838C
S21440031004F10104A045F8D0B9F1000FDED03068F2
S2144003203A68295D90470028EDDB04F10104A045BA
S214400330D4D1EAE704F10104A045CFD1E5E700BFF8
S21440034010B541F25043C4F20E034FF400425A60D7
S2144003504FF00B0040F2D544C0F24004A0474FF0A7
S2144003600C00A0474FF46060C4F20E004FF480319A
S2144003700161C0F8A01001634FF004034361C0F868
S214400380A0304366C0F8903043654362C0F8803082
S214400390026F22F004010167436F23F004024267B4
S2144003A04FF4C0630366C0F8903043654362C0F8BC
S2144003B08030016F21F4C0620267416F21F4C06251
S2144003C0426743604FF48050C4F20E004FF0010382
S2144003D00366C0F8903043654362C0F88030016FD2
S2144003E019430167426F22F00101416743604FF0B5
S2144003F002030366C0F8903043654362C0F880301D
S214400400026F1A430267416F21F00202426743605F
S21440041010BD00BF4FF48063C4F20E031A6B22F087
S214400420700108431863986E10F0080F07D010E06C
S21440043000F1FF33906E10F0080F38D009E04FF40B
S21440044000604FF48062C4F20E02916E11F0080F05
S214400450EED04FF48061C4F20E010A6B22F0030323
S21440046043F002000863896E11F0080F09D04FF080
S2144004700000704703F1FF33916E11F0080F13D060
S21440048009E04FF400634FF48062C4F20E02906EAF
S21440049010F0080FEED04FF0000070474FF001000C
S2144004A070474FF001007047013BF0D1F9E7581E06
S2144004B0CBD1F3E74FF48063C4F20E034FF0000253
S2144004C09A6270474FF48063C4F20E03986E00F051
S2144004D0020070472F2819D81F281AD84FF4806377
S2144004E0C4F20E039A694FF0010101FA00F10A4086
S2144004F0914211D04FF0010303FA00F04FF48062AE
S214400500C4F20E0210614FF0000070474FF0010039
S21440051070474FF0000070474FF00000704700BF34
S2144005200A4659B103780129C4BF417841EA0323FA
S214400530022A05DD807840EA032301E04FF00003FD
S214400540184670474FF0080303604FF020010160E3
S2144005504FF00402026070474FF4D453C0F20603D3
S214400560994245D84FEA4101B2FBF1F2A2F10402AA
S214400570FF2A2ED94FEA5202FF2A18D94FEA5202D2
S214400580FF2A17D94FEA5202FF2A16D94FEA5202DB
S214400590FF2A15D94FEA5202FF2A14D94FEA5202CF
S2144005A0FF2A13D94FEA52024FF0070313E04FF0E9
S2144005B0010310E04FF002030DE04FF003030AE0A2
S2144005C04FF0040307E04FF0050304E04FF0060346
S2144005D001E04FF000034FEA02614FEA034343EA6B
S2144005E01141D2B241EA020303614FF00000704766
S2144005F04FF00100704700BF70B50546CC688E6866
S214400600002C47D04FF0000343604A684FEA022070
S21440061000F4407242F48052087C4FEA004000F4F6
S214400620FE0002436A60EB600846496840F2215388
S214400630C0F240039847E860012C05D14FF0030014
S21440064028604FF001022EE04FF0010129604FF084
S214400650000228E02B6A13F4807F04D01DE04FF0A0
S21440066002004FF00101012C02D10AB928600A4667
S21440067013F0020F04D02B6B06F8013B04F1FF3455
S214400680002CE7D12A6A12F0010FFBD02B6A4FF0FC
S214400690000070BD4FF0010070BD4FF0050070BD0A
S2144006A04FF0050070BD2B6A13F4807FD7D0F7E774
S2144006B070B50446CD688E68002D3DD04FF00003DF
S2144006C04360087C4FEA004202F4FE004A684FEA64
S2144006D0022202F4407210436060E36008464968B4
S2144006E040F22153C0F240039847E0600BE0226A94
S2144006F012F4807F23D112F0040FF8D016F8010BC5
S2144007006063013D07D0216A11F4807F1AD111F051
S214400710040FECD0F2E7236A13F4807F15D113F070
S214400720040FF8D04FF002012160226A12F0010F48
S214400730FBD04FF0000070BD4FF0010070BD4FF091
S214400740050070BD4FF0050070BD4FF0050070BD50
S2144007504FF080030360036B704700BF38B5044614
S2144007600D464FF0FF338362036A40F25171C0F288
S21440077040018847204640F24552C0F2400290472A
S214400780204669682A6840F25953C0F240039847A9
S214400790012814BF00200120697A012904BF4021A6
S2144007A0216038BD10B44FF0AC0303600A684C6853
S2144007B0B2FBF4F34FEA131303F1FF344FF6FE7225
S2144007C094420CD803628968416040F20223C0F824
S2144007D020314FF0500202604FF0000001E04FF031
S2144007E0010010BC704700BF436913F0020F03D0EE
S2144007F0C1614FF0000070474FF00100704700BFE6
S214400800436913F0010F04D0806908704FF0000070
S21440081070474FF001007047436913F0020F07D04E
S2144008204FEAC1514FEAD152C2614FF000007047C3
S2144008304FF00100704700BF436913F0010F08D026
S21440084080694FEAC0524FEAD2530B604FF0000027
S21440085070474FF001007047FEE700BF38B540F2E2
S2144008600003C2F2000343F6C832C0F240029A4286
S21440087003D051485149814204D3514B514A9A4280
S21440088025D342E0504D514C631B23F003054FF0F7
S214400890000340F20002C2F2000243F6C831C0F242
S2144008A0400105F10400C5F380045D589D5003F1F6
S2144008B00403834276D1E0E75D589D5003F104037C
S2144008C05C589C5003F104038342F5D1D5E7404D74
S2144008D04049481B20F0030440F6D803C2F2000308
S2144008E0E2184FF00001501BA0F10400C0F3800452
S2144008F045F8041F95424ED107E005F104036960B0
S21440090005F1080559609542F7D140F20005C0F25E
S214400910400525F07F024FF46D41CEF200018A601B
S214400920EFF3108472B6BFF35F8F40F20C03C2F24F
S21440093000034FF0000018704EF68852CEF20002C8
S214400940116841F470031360BFF34F8FBFF36F8F8E
S2144009504CB940F20C04C2F200044FF00100207083
S214400960BFF35F8F62B605F16045B5F5C03F07D26D
S2144009704FF46D41CEF200018A6842F000538B601E
S21440098041F2FD74C0F24004A04740F60160C0F258
S21440099040008047FEE7002CAFD045F8041F954244
S2144009A0ABD1B2E7002C87D05C589C5003F10403CF
S2144009B0834281D161E700BFD808002000000020B4
S2144009C068090020D808002004000020DB0800202A
S2144009D0D4080020630900204FF42063C4F20E03BD
S2144009E04FF40072C0F200421A604FF48060C4F2C6
S2144009F00E0043F60171C0F2DC5181624FF4806212
S214400A00C4F20E02936E13F0020FFBD04FF48060D8
S214400A10C4F20E004FF0020101634FF48062C4F24C
S214400A200E02936E13F0080FFBD04FF4D840C0F27E
S214400A30DC2040F21001C2F200010860704700BF9F
S214400A404FF48063C4F20E03186B00F003010129D3
S214400A5015D011B102296DD14CE041F21041C4F2DB
S214400A600E014B6913F0800F40F21000C2F20000F6
S214400A7014BF4FF400424FF4FA4202605AE04FF47B
S214400A808062C4F20E02116A11F0807F09D04FF4E2
S214400A90D850C0F2B70040F21002C2F20002106016
S214400AA048E04FF49053C0F27A0340F21000C2F28E
S214400AB0000003604FF48062C4F20E02116A01F037
S214400AC07003102B02D0202B34D109E04FF4105184
S214400AD0C0F2F40140F21003C2F20003196029E0AC
S214400AE04FF45850C0F26E1040F21002C2F20002AC
S214400AF010601FE040F21003C2F200034FF4FA42C7
S214400B001A604FF48060C4F20E00016B01F00303DC
S214400B10022B0FD14FF48062C4F20E02906AC0F3EB
S214400B200B414FF4FA4301FB033040F21002C2F28D
S214400B30000210604FF48061C4F20E010B6B03F0AC
S214400B40700070280ED140F21003C2F200031968FC
S214400B504AF6AB20CAF6AA20A0FB01024FEA520191
S214400B60196070474FF48062C4F20E02116B40F277
S214400B701003C2F20003C1F302101A6822FA00F210
S214400B801A6070474BF61F43C0F2BE03984207D820
S214400B904FF42063C4F20E034FF080601860704735
S214400BA047F63F01C0F27D11884209D84FF42061D4
S214400BB0C4F20E014FF48072C0F200420A607047E1
S214400BC04DF27F53C0F2432398424FF42060C4F264
S214400BD00E0094BF4FF400724FF44072C0F20042D1
S214400BE00260704740F6F403C2F20003196841B948
S214400BF040F6F403C2F2000343F66812C2F2000263
S214400C001A6040F6F401C2F200010B68181847F665
S214400C10FC72C2F20102824206DB014640F6F40054
S214400C20C2F20000016001E04FF0FF331846704703
S214400C304FF0FF30704700BF4FF400534B604FF00B
S214400C40000070474FF00100704700BF4FF00000B3
S214400C50704700BF70B582B00C464FF0000301935A
S214400C604FF4C061C4F20E0188420DD14FF4C06506
S214400C70C4F20E0540F60106C0F24006284621465C
S214400C80B0470028FAD128E04FF40062C4F20E02C2
S214400C9090420DD14FF40065C4F20E0540F60106B1
S214400CA0C0F2400628462146B0470028FAD114E054
S214400CB04FF48043C4F2020398420ED14FF480456D
S214400CC0C4F2020540F63906C0F24006284601A99D
S214400CD0B0470028FAD10198207002B070BD00BF1E
S214400CE070B50C464FF4C063C4F20E0398420FD161
S214400CF04FF4C065C4F20E0540F2E976C0F24006F5
S214400D0028462146B0470028FAD14FF0010070BD72
S214400D104FF40061C4F20E0188420FD14FF40065D3
S214400D20C4F20E0540F2E976C0F240062846214657
S214400D30B0470028FAD14FF0010070BD4FF4804212
S214400D40C4F2020290420FD14FF48045C4F202052D
S214400D5040F61906C0F2400628462146B04700280D
S214400D60FAD14FF0010070BD4FF0000070BD00BFDB
S214400D702DE9F84F82464FF46067C4F20E074FF4F1
S214400D80803BC7F830B04FF40046C0F2DC2643F252
S214400D90AF644FF0000541F26919C0F240092046A1
S214400DA02946E6FB0A0143F2B0624FF00003C8470B
S214400DB040F20108C2F20008C047C7F834B04CF60B
S214400DC0CD43CCF6CC43A3FB0A204FEA9002204604
S214400DD02946E6FB020143F2B0624FF00003C847E3
S214400DE0C0474FF00000BDE8F88F00BF40F6F8035C
S214400DF0C2F200031A6802F101021A60704700BF8F
S214400E002DE9F04F95B040F6D913C0F2400398470D
S214400E1040F2AD10C0F24000804740F24131C0F28F
S214400E20400188474FF46064C4F20E044FF48032A9
S214400E3022602261C4F8A02022634FF0040525609A
S214400E406561C4F8A0504FF400766661C4F8A060AF
S214400E504FF480672761C4F8A0704FF0080040F256
S214400E60D545C0F24005A8474FF4C064C4F20E040E
S214400E7040F66013C2F200031C6040F65C10C2F2FB
S214400E80000040F6E141C0F24001016040F65816CD
S214400E90C2F2000640F65542C0F2400232604FF4BD
S214400EA00047C0F2DC2703974FF4E13304934FF436
S214400EB0006005904FF00800A847204603A940F27E
S214400EC0A575C0F24005A84740F21806C2F20006D3
S214400ED03468A0684FF0000141F69907C0F2400719
S214400EE0B847316848684FF00001B84743F6F0000D
S214400EF0C0F2400041F64902C0F2400290474FF42B
S214400F006069C4F20E0940F67153C0F24003019383
S214400F1043F6541BC0F2400B4AF2934AC0F2680AAA
S214400F20D9F83C0010F0040F04D04FF0C800019EE2
S214400F30B047F5E7584641F64906C0F24006B04786
S214400F4043F6A010C0F240004FF02501B04743F6EC
S214400F502435C0F2400543F6BC10C0F24000294696
S214400F60B04743F6D810C0F24000B0474EF21007E4
S214400F70CEF200074BF684347C604FF46D42CEF2DE
S214400F8000024FF0F00182F823104FF00006BE60DA
S214400F904FF007033B604FF0160040F2D547C0F2D3
S214400FA04007B8474FF40040C0F2DC2011904FF4A1
S214400FB0D454C0F2060412944FF040018DF840100D
S214400FC08DF830608DF831604FF002020D920E952C
S214400FD04FF025050F958DF82C108DF81C608DF878
S214400FE01D60089240F6FC03C2F2000309930A957E
S214400FF03046C4F2040011A940F25D76C0F24006C5
S214401000B04740B143F60C20C0F2400041F64907D5
S214401010C0F24007B8474FF00000C4F204000CA9E5
S21440102040F2B164C0F24004A04740B143F63420D9
S214401030C0F2400041F64901C0F24001884743F6FD
S2144010405C20C0F2400041F64905C0F24005A84782
S21440105043F66C20C0F240000E99A84743F6501065
S214401060C0F24000A84740F6F800C2F2000006680A
S214401070024613689F1B092FFBD94FF00000C4F2AD
S214401080040007A940F2F954C0F24004A04740B11A
S21440109043F68420C0F2400041F64901C0F24001C8
S2144010A0884743F6A820C0F2400041F64905C0F202
S2144010B04005A84743F6B420C0F240000999A84727
S2144010C043F65010C0F24000A8474FF0000443F6E5
S2144010D02435C0F2400540F6FC06C2F2000643F650
S2144010E0C427C0F2400741F64908C0F24008605D98
S2144010F0A25D90422CD12DE0615DA35D994201D066
S2144011003846C04704F10104285D325D904224D140
S21440111025E043F6E420C0F2400041F64904C0F220
S2144011204004A04743F60430C0F24000A04743F6D0
S2144011305010C0F24000A047504640F20105C2F2AF
S2144011400005A84743F6F000C0F24000A047E7E697
S2144011503846C04704F10104CEE73846C04704F19C
S2144011600104252CC8D1D4E74BB942B9002908BFA1
S214401170002802D04FF0FF31084600F037B882B062
S214401180EC462DE9005000F01BF8DDF804E002B014
S2144011900CBC7047F8B5164604460D461F4600F090
S2144011A027F806FB01F300FB0737A6FB0023FB18D6
S2144011B0A21A65EB0303069CC4E90023F8BD00BFF2
S2144011C0F8B5164604460D461F4600F06FF900FB7C
S2144011D007F7A0FB062306FB0177FB18A21A65EB70
S2144011E00303069CC4E90023F8BD00BF704700BF58
S2144011F000292DE9F00F1D46C0F29D800024002DE9
S214401200C0F2948080460F4694461E46E3BB8A4210
S21440121055D9B2FA82F747B1C7F1200520FA05F64C
S21440122001FA07F1BA403143B840170CB1FBF7F664
S214401230030C1FFA82FC07FB16110CFB06F543EA6B
S21440124001439D4208D9711E9B1880F013819D4230
S21440125040F21081023E9B18591BB1FBF7F507FB85
S214401260151380B20CFB05FC40EA03418C4507D9B8
S2144012706B1E8A1880F00081944540F2FD80023D46
S21440128045EA0641002503E08B420CD90025294655
S2144012900A462B4614B1524263EB430310461946A6
S2144012A0BDE8F00F7047B3FA83F5002D40F0878015
S2144012B08B4201D38242EAD800250121E8E712B9E1
S2144012C00126B6FBF2F2B2FA82F6002E39D18E1A19
S2144012D0130C1FFA82FC0125B6FBF3F703FB1761DC
S2144012E04FEA10490CFB07F849EA0146B04506D9D3
S2144012F0791EB61802D2B04500F2D3800F46C8EB2E
S2144013000606B6FBF3F103FB116380B20CFB01FC4F
S21440131040EA03439C4506D94E1E9A1802D294458D
S21440132000F2C280314641EA0741B1E7E443524207
S21440133063EB430366E7404261EB41014FF0FF3405
S2144013405DE7B240C6F1200921FA09F720FA09F50F
S214401350130C01FA06F1B7FBF3F845EA01091FFA48
S21440136082FC03FB18774FEA19410CFB08F541EA6B
S2144013700747B040BD420AD9BF1808F1FF3680F093
S2144013808E80BD4240F28B80A8F10208BF18791BC0
S214401390B1FBF3F503FB15171FFA89F90CFB05F6AD
S2144013A049EA07418E4206D96F1E891871D28E428D
S2144013B06FD9023D89188E1B45EA08458CE7C5F172
S2144013C0200122FA01F306FA05F61E4327FA01F237
S2144013D04FEA164907FA05F720FA01F1B2FBF9F889
S2144013E00F433B0C1FFA86FA09FB18220AFB08FB40
S2144013F043EA024293450CFA05FC08D9921908F1D3
S214401400FF314AD2934548D9A8F102089219CBEB4E
S2144014100203B3FBF9F109FB1132BFB20AFB01FA32
S21440142047EA02439A4506D94A1E9B1933D29A4543
S21440143031D902399B1941EA08410F0C1FFA8CF842
S21440144008FB07F68AB24FEA1C4C08FB02F80CFB76
S214401450026202EB18420CFB07FC964288BF0CF572
S214401460803CCAEB03030CEB124C63450ED305D00D
S21440147000250DE70E46EFE61D4601E71FFA88F801
S21440148000FA05F008EB0245A842F1D201390025E2
S214401490FEE63D468FE71146CDE78846B7E7B046BD
S2144014A075E7023FB6182AE702393CE72DE9F00710
S2144014B0144605460E46002B3DD18A4249D9B2FA1B
S2144014C082F747B1C7F1200120FA01F206FA07F683
S2144014D0BC401643BD40220CB6FBF2F02F0CA1B226
S2144014E002FB106601FB00F347EA0646B34208D902
S2144014F0471E361980F0F880B34240F2F580023835
S2144015003619F61AB6FBF2F302FB1362ADB201FBD4
S21440151003F145EA0242914207D95E1E121980F055
S214401520E580914240F2E280023B43EA00400021DF
S214401530BDE8F00770478B4243D8B3FA83F4002CDB
S21440154042D18B4202D3824200F2DF80002101204A
S214401550EEE712B90127B7FBF2F4B4FA84F2002A98
S21440156040F088800A1B230CA7B20121B2FBF3F699
S21440157003FB16224FEA154C07FB06F04CEA0242E4
S214401580904207D9121906F1FF3C02D2904200F26F
S214401590CE806646121AB2FBF3F003FB1023ADB2C0
S2144015A007FB00F745EA03439F4207D9421E1B1933
S2144015B080F09E809F4240F29B80023840EA064080
S2144015C0B6E700210846B3E7C4F1200622FA06F53E
S2144015D003FA04F32B434FEA134C21FA06F501FABB
S2144015E004F120FA06F6B5FBFCF746EA010A1FFAB4
S2144015F083F80CFB17554FEA1A4108FB07F941EAF6
S2144016000545A94502FA04F203D97E1EED187FD39C
S2144016103746C9EB0501B1FBFCF60CFB16151FFA65
S2144016208AFA08FB06F84AEA0541884503D9751E3A
S214401630C91873D32E4646EA0746370C1FFA82FC73
S2144016400CFB07F5120CB3B20CFB03FC02FB035376
S21440165003EB1C4302FB07F29D4288BF02F5803233
S214401660C8EB010102EB134291424BD342D03046C5
S21440167000215DE79440C2F1200521FA05F6230CCF
S21440168020FA05F701FA02F1B6FBF3FC39430D0CDC
S214401690A7B203FB1C6645EA064607FB0CF8B045B6
S2144016A000FA02F508D936190CF1FF303DD2B045A4
S2144016B03BD9ACF1020C3619C8EB0602B2FBF3F08C
S2144016C003FB10268AB242EA064207FB00F191422B
S2144016D006D9461E121926D2914224D9023812192A
S2144016E0521A40EA0C4141E738460AE733461CE7BF
S2144016F0104663E71FFA8CFC00FA04F00CEB034339
S2144017009842B4D2701E002112E7214620460FE7C9
S214401710A9457FF67DAF023FED187AE7884589D91F
S214401720023EC91887E73046DAE78446C4E7023EF9
S21440173012192FE72DE9F8439846234B1C680646B6
S214401740D4F848010F46914618B904F5A670C4F877
S214401750480141681F2916DD1C4818B94FF0FF3074
S214401760BDE8F8834FF4C87001F042FB0028F5D07E
S214401770D4F84821002545600260C4F84801C0F806
S2144017808851C0F88C51B6B14468D0F8881101220F
S21440179000EB840302FA04F21143022EC3F8889049
S2144017A0C0F888111C46C3F8088104D1D0F88C31A3
S2144017B01A43C0F88C2141688B1C4A1C40F82370A1
S2144017C042600020BDE8F8834C3B4000F12D4000CD
S2144017D070B5084B084CE01A841003EB84060025CD
S2144017E0043D1CB172599047013CF9E7BDE8704092
S2144017F002F0DEB9BC3B4000C03B400038B50E4D61
S2144018000E4BE81A85100024AC4205D00B4951F81F
S214401810242090470134F7E702F0C0F90849094A06
S214401820541AA5100024AC4205D0054B53F82400AA
S21440183080470134F7E738BDA83B4000A83B40004E
S214401840A83B4000B03B40000FB407B5064904AB88
S214401850086853F8042B8168019300F0CFF8BDE880
S2144018600E4004B0704700BF180000200EB403B509
S21440187003AB816853F8042B019300F0BFF8BDE832
S2144018800C4003B0704700BF82180346934202D014
S21440189003F8011BFAE7704700290CBF022200221A
S2144018A04FF4806300F000B82DE9F0411D46374BF9
S2144018B0044618680E461746984618B1826B0AB911
S2144018C000F054FE022F5DD8002D5BDB2146D8F891
S2144018D0000000F057FDA18901F0800300201AB2F5
S2144018E06060A06122B129482169006800F07CFF51
S2144018F0A189022F21F08303A38112D036BB002D8D
S21440190008BF4FF48065284601F072FA0646C8B90B
S2144019104FF4806001F06CFA064688B94FF0FF300D
S21440192000E00020A18941F00203A38104F14301B5
S21440193000220123A260216021616361BDE8F0813D
S2144019404FF48065A28942F08000A081012F05D126
S214401950A1896A4241F00103A381A2610B48A28992
S21440196001680B4B02F0080000B2CB63266026618C
S214401970656148B112F0030F18BF0025A56000202E
S214401980BDE8F0814FF0FF30BDE8F0811800002040
S214401990E124400093682DE9F04781460F461446FF
S2144019A01BB953601846BDE8F0874B6E9B041ED5A6
S2144019B01568A0680835C8B155F8041C55F808AC39
S2144019C04FEA91080026464509DA48465AF8261056
S2144019D03A4600F047FE431C0BD00136F3E7A268B8
S2144019E04FEA8808C8EB0203A360E2E701E000F094
S2144019F0B1FF0021A1606160BDE8F0872DE9F04F9E
S214401A008946A9B014461D461E46824618B1836BC9
S214401A100BB900F0ABFDB9F80C0000F4005211B25F
S214401A2049B940F40053D9F86400A9F80C3020F4C2
S214401A300052C9F86420B9F80C1001F0080318B237
S214401A4048B1D9F8102032B1B9F80C1001F01A0399
S214401A500A2B16D109E05046494600F027FC0028DC
S214401A60F2D04FF0FF320392D5E3B9F90E000028CA
S214401A7007DB5046494622462B4600F0D0FB0390F3
S214401A80C9E3002218AD0B950D920C920194059275
S214401A900392A84601990C4611F8013B0BB1252B41
S214401AA0F9D1019AA51A19D00C990D984B1C88E8C3
S214401AB02400072B00EB05020D9208F108080C9352
S214401AC009DD504649460BAAFFF764FF002840F060
S214401AD09A830DF1600803984219039221780029F1
S214401AE000F08A830022013401948DF827204FF0BD
S214401AF0FF3C04921746019810F8013B0190632B77
S214401B0000F0B38033DC392B1ADC312B80F2918025
S214401B102B2B01D11A46EEE70ADC232B55D02A2B75
S214401B2056D0202B40F0F781002A08BF2022E2E75B
S214401B302E2B58D0302B79D02D2B40F0EC814FE017
S214401B404F2B00F0DE8007DC442B40F0E4818DF81C
S214401B50272047F0100790E0552B00F01F81582BA8
S214401B6040F0D981AF4D8DF82720059531E16F2B98
S214401B7000F0C98010DC692B24D007DC642B21D010
S214401B80682B40F0C88147F04007B4E76C2B5FD025
S214401B906E2B40F0C08196E0732B00F0DF8006DCB1
S214401BA0702B00F0CD80712B40F0B5815AE0752B3C
S214401BB000F0F680782B40F0AE819B4D8DF82720C4
S214401BC0059506E18DF8272057E047F0010792E794
S214401BD0331D3668002E049615DA704204901E4671
S214401BE047F0040787E7019911F8013B2A2B01913A
S214401BF00BD1D6F800C0331DBCF1000F03DA1E46E9
S214401C004FF0FF3C77E71E4675E74FF0000CA3F118
S214401C103000092807D801990A2303FB0C0C11F859
S214401C20013B0191F3E74CEAEC7C68E747F080071C
S214401C3061E701980021303B0A2404FB013110F88B
S214401C40013BA3F13004092C0190F4D9049156E7E6
S214401C5001990B786C2B02D1481C019002E047F0AA
S214401C60100748E747F0200745E7326800258DF81B
S214401C7038208DF82750043657E1BA0607D5073680
S214401C8026F0070505F10806D5E900450FE017F0F0
S214401C90100F06F1040101D0326805E017F0400F3E
S214401CA0326801D014B200E01446E5170E46002C08
S214401CB075F1000280F2BA802D23644265EB45053B
S214401CC08DF82730B2E017F0200F8DF8272006F168
S214401CD0040205D0039C3568E0172C60686004E079
S214401CE0FB0604D53368039919601646D2E6306879
S214401CF0039C17F0400F06F1040614BF04800460EE
S214401D00C8E647F0100717F0200008D0F31D23F070
S214401D10070505F10806D5E9004500207DE017F0E7
S214401D20100106F1040206D117F0400003D03488B3
S214401D3000251646F1E736680025344616466CE020
S214401D40394B3468059330217822002547F0020746
S214401D508DF828108DF8292004365DE031460025A0
S214401D60D1F800B08DF827500436AC45584611DB04
S214401D7062462946CDF800C001F04CFADDF800C0B6
S214401D80002800F0D680CBEB0004644540F3D380B7
S214401D906446D0E001F042FC0446CCE047F0100731
S214401DA0BD0607D5F01D20F0070404F10806D4E967
S214401DB000450CE017F0100F06F1040303D17C0633
S214401DC001D5348801E035682C4600251E460120A2
S214401DD023E0B80607D5F41D24F0070101F10806F4
S214401DE0D1E900450CE017F0100F06F1040003D1CE
S214401DF0790601D5348801E0366834460025064623
S214401E00FA0709D554EA050206D030228DF8282074
S214401E108DF8293047F00207022000218DF8271060
S214401E2005E000BF723B4000833B40000120BCF110
S214401E30000FA8BF27F0800754EA050102D1BCF185
S214401E40000F58D001281DD002280DF15F0341D065
S214401E5004F00702E40844EA4570E90804460D46E3
S214401E60303254EA05019B461A7003F1FF33EFD136
S214401E70F8075D464AD5302A48D030229B4605F8BA
S214401E80012C43E0002D08BF0A2C03D230348DF8D5
S214401E905F4036E00DF15F030293204629460A2252
S214401EA00023CDF800C0FFF75FF90298DDF808B0D0
S214401EB0303200F80129294602900A2220460023A3
S214401EC0FFF752F904460D4654EA0501DDF800C016
S214401ED0E3D11BE004F00F00059924090A5C44EAAC
S214401EE00570290904460D469B4603F8012954EA25
S214401EF00502EFD10AE038B9F90705D530208DF84C
S214401F005F000DF15F0B01E00DF1600B18ADCBEB00
S214401F10050465460FE08DF82720002B00F06C8105
S214401F2000258DF838308DF8275001240DF1380BF8
S214401F3001E0644605469DF82730AC42ACBF2146DA
S214401F402946029113B10298421C029217F00201F0
S214401F50069102D0029B981C029017F084020792CA
S214401F603AD10499029BCB1A002B35DDA048102BA2
S214401F70C8F800001ADD0C990D9A1020C8F8040025
S214401F80481C103207280D9208F108080C900BDD0B
S214401F90504649460BAA0093FFF7FCFC009B0028DE
S214401FA040F031810DF16008103BDFE70D9AC8F82C
S214401FB00430D1180C9B0D91581C072808F10808CE
S214401FC00C9009DD504649460BAAFFF7E3FC002873
S214401FD040F019810DF160089DF82720D2B10DF12F
S214401FE02701C8F800100C990D980123C8F8043052
S214401FF04B1C421C072B0D9208F108080C9309DD78
S214402000504649460BAAFFF7C5FC002840F0FB8027
S2144020100DF160080698C8B10AAAC8F800200C9AC4
S2144020200D9B0221C8F80410511C981C07290D90DE
S21440203008F108080C9109DD504649460BAAFFF7FF
S214402040A9FC002840F0DF800DF16008079B802B3C
S2144020503AD10498029A831A002B35DD6549102B35
S214402060C8F800101ADD0C9A0D981021C8F8041014
S214402070511C103007290D9008F108080C910BDD13
S214402080504649460BAA0093FFF784FC009B002865
S21440209040F0B9800DF16008103BDFE70C9A0D98D0
S2144020A0C8F80430511CC31807290D9308F10808D6
S2144020B00C9109DD504649460BAAFFF76BFC0028F9
S2144020C040F0A1800DF160082D1B002D32DD4948FF
S2144020D0102DC8F8000018DD0C9A0D98531C1021DE
S2144020E01030072BC8F804100D9008F108080C9320
S2144020F009DD504649460BAAFFF74CFC002840F045
S21440210082800DF16008103DE1E70C9A0D9BC8F8FF
S2144021100450511C5D1907290D9508F108080C91CB
S21440212008DD504649460BAAFFF734FC00286AD122
S2144021300DF160080C9A0D98C8F80440511C04191B
S2144021400729C8F800B00D9408F108030C9107DD84
S214402150504649460BAAFFF71DFC002853D118AB42
S2144021607A070BD4039B029A04990D988A42ACBF17
S2144021709B185B180393002835D02EE0049C0298E9
S214402180241A002CEEDD1A4A102C1A6014DD0C9826
S2144021900D9910225A60421C10310833072A0D91BF
S2144021A00C9207DD504649460BAAFFF7F3FB002882
S2144021B029D118AB103CE6E70C995C600D9B481C97
S2144021C01C1907280D940C90CCDD504649460BAAA6
S2144021D0FFF7E0FB0028C5D015E0504649460BAA5D
S2144021E0FFF7D8FB78B900250C950DF1600851E44F
S2144021F0523B4000623B40000D9A22B15046494651
S2144022000BAAFFF7C7FBB9F80C1001F0400003B269
S214402210002B7FF426AC039829B0BDE8F08F70B54C
S2144022200C468989ADF58D6D21F00205616EADF8DD
S2144022300C501991E589E169ADF80E500791656A31
S2144022401AA9009104910021099506914FF48065E2
S2144022506946029505950646FFF7D0FB051E07DB47
S2144022603046694600F08EF8002818BF4FF0FF351C
S214402270BDF80C3003F0400002B21AB1A18941F01B
S2144022804003A38128461AB00DF5806D70BD30B569
S2144022901346054A05460C46106829462246BDE8C0
S2144022A03040FFF7ABBB00BF1800002038B52C4BC2
S2144022B0054618680C4618B1826B0AB900F056F904
S2144022C0A08900F008010BB20BBB00F0100211B25F
S2144022D011B94FF0FF3038BD00F0040003B293B19F
S2144022E0216B41B104F14002914202D0284600F0F1
S2144022F07BFA00212163A089216920F02403002273
S214402300A38162602160A08940F00803A38122690E
S2144023104AB9A18901F42070B0F5007F03D0284661
S214402320214600F0F9FCA38913F0010205D061694B
S21440233000224842A260A06107E003F0020108B212
S21440234008B9636900E01346A360236933B9A289DC
S21440235002F0800108B20028BBD138BD002038BD4D
S21440236018000020024B13B1024800F005B8704731
S21440237000000000D11740000146002002460346F8
S214402380FFF7D8B92DE9F0410C46054618B1836BE6
S2144023900BB900F0EBF8A28932B302F0080001B2A4
S2144023A0002962D1616842F400600029A08102DC05
S2144023B0E36B002B18DDA66AB6B102F4805200200B
S2144023C012B22F6828600AB1226D10E00123284619
S2144023D0E169B0470246013009D1296839B11D2963
S2144023E001D016294FD12F600020BDE8F081A68984
S2144023F006F004010BB22BB16068266B121A0EB1C0
S214402400E16B521AE169A66A00232846B047411C90
S21440241005D12A681AB11D2A01D0162A1FD1A389D0
S21440242023F400620021A28103F480532269616094
S21440243019B2226021B1421C01D12A6802B9206536
S214402440216B2F600029CFD004F14000814202D09A
S214402450284600F0C9F900202063BDE8F081A38932
S21440246043F04001A181BDE8F0812669002EBBD033
S2144024709207236808BF6269266018BF0022C6EB31
S2144024800308A26012E0A38943F04000A0814FF009
S214402490FF30BDE8F081676AE16928463246434628
S2144024A0B8470028EFDD3618C0EB0808B8F1000F33
S2144024B0F1DC99E7014620B904480549006800F078
S2144024C0C5BB044B1868FFF75DBF00BF4C3B4000E0
S2144024D085234000180000200020704700207047E9
S2144024E0014900F092BB00BF55384000002310B5AC
S2144024F0044603604360836081814366C281036112
S214402500436183611946082200F15C00FFF7BCF97D
S21440251004480549054A064BE46120626162A262AE
S214402520E36210BD793540009F354000DB35400002
S214402530FF35400070B568254D430E4605F10C0149
S21440254000F066FC044640B100F10C00002184E82F
S2144025504200A0602A46FFF797F9204670BD024B1E
S2144025601868FFF7BDBF00BF4C3B400038B5836BD3
S2144025700446EBB90F4AC0F8E0320125C2638563D2
S21440258004F53B7103201A46C4F8E402C4F8E81286
S21440259060680421FFF7AAFFA06809212A46FFF7D2
S2144025A0A5FFE06812210222BDE83840FFF79EBF33
S2144025B038BD00BFE1244000F8B51D4B1E680746F5
S2144025C0B06B10B93046FFF7D1FF06F53876B468E1
S2144025D07168013904D4B4F90C5085B16834F8E711
S2144025E032680AB13668F2E738460421FFF7A2FFA0
S2144025F030600028F6D10C243C60044615E04FF6C7
S214402600FF730120A081E38165662560A560656053
S21440261025616561A56104F15C0029460822FFF743
S21440262033F9256365636564A5642046F8BD00BF3D
S2144026304C3B40007047704770477047024B034919
S214402640186800F0E2BA00BF18000020D924400005
S214402650024B0349186800F0D8BA00BF18000020A3
S214402660DD24400093892DE9F341144603F40052DB
S214402670804610B20E4630B9676E43F4005147F4B8
S2144026800053A181636600F029FB012806D12EB1D4
S214402690FF2E03D88DF8046007460FE032464046CA
S2144026A001A904F15C0301F01BF8421C074605D162
S2144026B0A28942F04000A081384631E00025BD4264
S2144026C02AD0A1684A1E002AA26001AB1ADAA06985
S2144026D082420CDB21685A5D0A70236819780A2901
S2144026E003D001330022236013E0404601E0595DE9
S2144026F04046224600F09AFFB0F1FF31484250EB88
S214402700010206E02068595D01702268531C236070
S21440271000E01AB90135D2E7304601E04FF0FF300D
S214402720BDE8FC81F8B5084C074620680E4618B14F
S214402730856B0DB9FFF71AFF206839463246BDE86B
S214402740F840FFF78FBF00BF18000020F8B5234DB4
S2144027500E46044600F08FFDAB685F6827F003071F
S21440276007F6EF70811B21F47F6222F00F06A6F574
S2144027708056B6F5805F04DA204600F07DFD0020E6
S214402780F8BD0021204600F0E7FEAB68D919884224
S214402790F2D17142204600F0DFFE013010D1002118
S2144027A0204600F0D9FEAB68C21A0F2AE4DD0C4979
S2144027B00968401A0B4942F0010208605A60DBE79C
S2144027C0084BA8681A68BF1B47F001074760961B6E
S2144027D020461E6000F050FD0120F8BDC4040020D5
S2144027E0CC08002028090020F8B506460D460029EA
S2144027F000F0A68000F03FFD55F804CC514FA5F1FF
S21440280008032CF001029C18B96860688C4220F0DE
S21440281003000CF001011CD1821839B955F8081C88
S2144028205B1A52189868D968C1608860454842F07B
S214402830010159608360444B19688A4204D3434A75
S21440284030461168FFF782FF3046BDE8F84000F09A
S21440285013BD606059B955F8085C5B1B52199D68FA
S2144028600837BD4205D0DF68EF60BD6002E000215A
S21440287000E0012125186D6815F0010F0FD11218E0
S21440288049B9A068324DA84205D1EB60AB60D8602C
S2144028909860012103E0E068A468E060846042F04C
S2144028A0010058609A500029CED1B2F5007F0CD274
S2144028B02449D2089010012404FA00F448682043C2
S2144028C0486001EBC200816835E0540A042C02D807
S2144028D09409383416E0142C01D85B3412E0542C9A
S2144028E002D8140B6E340DE0B4F5AA7F02D8D40B90
S2144028F0773407E040F25455AC4202D8940C7C340E
S21440290000E07E240F4D05EBC400816881420CD167
S21440291068680122A41002FA04F444EA00026A60DD
S214402920084608E08968814204D04C6824F00304D5
S214402930A242F7D3C868D86099608360CB6083E7CB
S214402940F8BD00BFC4040020D008002024090020A1
S214402950CC04002093682DE9F74F06460C46914676
S2144029600BB900204FE1888900F008010AB20AB18D
S21440297023695BB930462146FFF798FC30B1A18900
S214402980092241F04000A08132603AE1B4F80CA040
S214402990D9F800800AF0020C0FFA8CF515B34FF008
S2144029A0000A574637B9D8F800A0D8F8047008F19E
S2144029B00808F7E7B7F5806F34BF3B464FF48063AF
S2144029C03046E169656A5246A847002840F31581BB
S2144029D0D9F8081082443F1A081AC9F80800002897
S2144029E0E0D1BEE71AF0010A04D0AB4601952F4667
S2144029F0AA46C7E0554635B9D8F800A0D8F80450DE
S214402A0008F10808F7E7A289D4F808B002F4007085
S214402A1003B2002B52D05D4540D312F4906F3BD0AA
S214402A202169276863694FF0030B0BFB03F3022011
S214402A307F1A93FBF0FC7B1C581902F48062844595
S214402A4028BF604613B2019030467BB1019900F032
S214402A50DFF9834698B121693A4600F0E9FBA1893F
S214402A6021F4906040F08002A2810BE0019A00F0D1
S214402A7005FC834630B930462169FFF7B5FE0C2386
S214402A803360BAE00199C4F810B00BEB0703CF1BD4
S214402A9023606161AB46A7605D4500D2AB465A46AF
S214402AA05146206800F0CDFBA0682368CBEB0002BF
S214402AB003EB0B01A2602160AB462AE02068216947
S214402AC088420FD95D450DD951465A4600F0B9FBAC
S214402AD0226802EB0B00206021463046FFF752FC8E
S214402AE0B8B18AE063699D4208D3676AE1693046B7
S214402AF05246B847B0F1000B0BDC7EE051462A4602
S214402B0000F09FFBA2682368501B5919AB46A06093
S214402B102160D9F80800CBEB0002DA44CBEB050580
S214402B20C9F80820002A7FF466AF1AE70198002803
S214402B3032D020682169A568D4F814E0D34534BF64
S214402B405B465346884237D97544AB4234DD3946F6
S214402B502A4600F076FB206843192360304621461B
S214402B60FFF710FC002848D1BBEB050B3DD0D9F849
S214402B7008207F19C5EB0A0A551BC9F80850002DD6
S214402B803FF4EFAEBAF1000FD0D1002198E88004B0
S214402B90019108F10808F5E738460A21524600F048
S214402BA039FB20B100F10101C7EB010B01E00AF14E
S214402BB0010B01220192BCE7734508DB656AE169B7
S214402BC030463A467346A847051ECDDC15E01A4601
S214402BD03946009300F035FB009B2568A068E9184D
S214402BE0C21AA26021601D46BEE730462146FFF766
S214402BF0C9FB10B9CDF804B0B9E7A28942F040034A
S214402C00A3814FF0FF30BDE8FE8F2DE9F04104462A
S214402C108846FFF70FFD04F5387400268CB1A5688A
S214402C206768013F0BD4B5F90C3033B1B5F90E00E7
S214402C30431C02D02846C04706436835F1E724685F
S214402C40ECE7FFF7F8FC3046BDE8F0812DE9F843A5
S214402C5080468946FFF7EEFC08F53874002694B1A6
S214402C60A5686768013F0CD4B5F90C303BB1B5F99F
S214402C700E00431C03D040462946C84706436835E5
S214402C80F0E72468EBE7FFF7D6FC3046BDE8F8836C
S214402C9010B514460AB90C4810BD10460B4900F052
S214402CA0B2FC0028F7D02046074900F0ACFC0028CC
S214402CB0F1D02046064900F0A6FC034B00280CBF86
S214402CC01846002010BD00BF503B4000943B4000DB
S214402CD09B3B40000048704748040020014B186A60
S214402CE0704700BF48040020004870476C0400202E
S214402CF000207047004870478C0400200A4603496D
S214402D00034608681946FFF7C3BF00BF18000020F7
S214402D10004870478C040020F0B58B890C4603F0C1
S214402D2002010AB291B00646002A3FD1B4F90E100D
S214402D3000290DDAA78907F0800247F4006310B235
S214402D4000280CBF4FF480654025A381002720E073
S214402D5001AA00F087FD0028ECDB029800F47045DD
S214402D60B5F500535F425F41B5F5004F0BD1A16A00
S214402D701D4A914207D1A3894FF4806543F4806190
S214402D80A181E56405E0A08940F40065A5814FF483
S214402D9080653046294600F03BF870B9A38903F4B5
S214402DA0007210B2E8B943F00201A18104F1430376
S214402DB0012223602361626113E0A2890B4942F03D
S214402DC08003F163A3812060206165614FB1304686
S214402DD0B4F90E1000F058FD18B1A08940F001017A
S214402DE0A18111B0F0BD00BFDB354000E1244000BA
S214402DF0024B0146186800F00BB800BF18000020D0
S214402E00024B01461868FFF7EFBC00BF18000020D1
S214402E102DE9F04701F10B04162C064603D934F091
S214402E20070401D502E010248C4202D20C253560FE
S214402E30D9E1304600F01FFAB4F5FC7F14D2A04D1D
S214402E40E10805EBC100C568854205D105F10803D8
S214402E506D698A1C9D4244D0E868A9686A68C86063
S214402E6022F00303816059E0620A01D1E2081BE0C8
S214402E70042A02D8A209383216E0142A01D85B3256
S214402E8012E0542A02D8220B6E320DE0B2F5AA7F29
S214402E9002D8E20B773207E040F254539A4202D807
S214402EA0A20C7C3200E07E22854800EBC203DD683F
S214402EB09D4215D0696821F00301081B0F2801DDEB
S214402EC0013A0DE0002809DBEB68AA68D3609A60F7
S214402ED06B185A6842F00100586090E1ED68E7E7E9
S214402EE0013277490D6901F10807BD4268D068682C
S214402EF020F00303181B0F280CDD2B194B610B61C8
S214402F0044F0010440F001016C60DF609F6059604E
S214402F10185074E100284F610F6101DBEB18D8E7C9
S214402F20B3F5007F0FD2DB089810012707FA00F7A9
S214402F30486807434F6001EBC301E9608B68AB60AC
S214402F40DD608D603CE0580A042802D89809383085
S214402F5016E0142801D85B3012E0542802D8180B2B
S214402F606E300DE0B0F5AA7F02D8D80B773007E078
S214402F7040F25457B84202D8980C7C3000E07E208D
S214402F80DFF83CE10EEBC007B968B9420ED18710B6
S214402F90012303FA07F0DEF8047040EA0703CEF890
S214402FA00430084608E08968B94204D0486820F0F2
S214402FB003008342F7D3C868E860A960CD608560A7
S214402FC03F4F95100120796800FA05F38B425DD893
S214402FD00B4205D122F003025B0004320B42FBD0C9
S214402FE0374D05EBC20E77461046FD68BD422DD0E4
S214402FF0696821F0030CC4EB0C010F2913DD2B1973
S21440300044F00104EA686C6055F8080F5950C260F5
S21440301090602B4A41F00100536113610832DA6038
S2144030209A6058600CE000290EDB05EB0C00E9685E
S214403030426842F00103436055F8080FC16088605B
S214403040304600F019F9DEE0ED68CFE70130810741
S21440305005F10807C9D17146950705D1184A556844
S21440306025EA0305556005E0A1F108070968013A1D
S214403070B942F1D0124F7F685B00BB4206D82BB1F5
S21440308002463B42ACD104325B00FAE70C4B9F68E9
S214403090786820F00309A145194604D3C4EB09001B
S2144030A00F2800F3A280074AD1F808341568013388
S2144030B007EB090A04EB050806D108F110080BE0F7
S2144030C0C40400202409002008F5805000F10F01B8
S2144030D021F47F6222F00F083046414600F03CFA69
S2144030E0421C054671D0504502D2484B9F426CD197
S2144030F04748464A4168554508EB0103436007D1B7
S214403100290505D19568C84448F00100686051E03B
S214403110D2F80804421C03D13C4AC2F8085405E0E1
S214403120CAEB050A03EB0A01394B596015F0070054
S2144031301CBFC0F108002D1805EB080C00F58051A7
S2144031404FEA0C5EA1EB1E584146304600F004FAAA
S2144031502F4A431C536808BF4FF0000808EB030192
S21440316008BF28465160401B284A00EB080343F03E
S21440317001019742956069601CD0B9F10F0F02D8E3
S21440318001226A6021E07D68A9F10C0929F007094F
S21440319007EB090305F00102052149EA0200B9F1EF
S2144031A00F0F78605960996004D9304607F10801DE
S2144031B0FFF71AFB164A5368D16A156B8B4288BFD5
S2144031C0D362AB4284BF124D2B631048826853686B
S2144031D023F00301A142C4EB010001D30F2804DC15
S2144031E0304600F049F800250DE0084A956844F05E
S2144031F001032C1940F001016B6094606160304619
S21440320000F03AF808352846BDE8F087C4040020A8
S2144032102409002010B5C9B20346821893421846C6
S21440322004D0047801338C42F8D100E0002010BD71
S21440323010B50023934203D0CC5CC4540133F9E765
S21440324010BD814270B50ED28C18A0420BD28518A4
S214403250134613F1FF3305D3514266186918F65CDE
S214403260CE54F6E770BD0023934203D0CC5CC454E2
S2144032700133F9E770BD7047704700002DE9F84FFD
S214403280814616460C4621B91146BDE8F84FFFF771
S214403290BFBDFFF7F0FF06F10B0754F8045C162F8E
S2144032A0A4F1080B25F0030803D937F0070701D52A
S2144032B002E01027B74204D20C20C9F800000026CE
S2144032C045E1B84580F21A81A24A91680BEB0803A3
S2144032D08B4206D0586820F0010298184268D00702
S2144032E026D45A688B4222F0030000EB080A18D115
S2144032F007F1100292451DDB0BEB0705C7EB0A0AE8
S2144033004AF00101696054F8042C924E02F0010321
S2144033101F43B56044F8047C4846FFF7ADFF264699
S21440332015E1BA4506DBDD689E68F560AE60E6E00E
S21440333000200346EA0700F1918054F8085CC5EB8C
S2144033400B056A6822F00302002B51D002EB080AF4
S2144033508B42824445D107F110039A4548DB2E46FE
S214403360E96856F8083FA8F10402242AD9608B6021
S21440337025D8132A1BD92168A96063681B2AEB60ED
S21440338003D805F11000083412E0A0682861E1680F
S214403390242A696103D005F11800103408E0226938
S2144033A0AA61636905F12000EB61183400E03046FD
S2144033B02168016062684260A368836003E030462B
S2144033C02146FFF73EFFE819C7EB0A0A4AF001021A
S2144033D042606B685F49886003F0010007436F6096
S2144033E088E0BA4504DBD9689868C160886003E025
S2144033F002EB080ABA4531DB2846EB6850F8081F4E
S214403400A8F10402242ACB60996023D8132A1AD93B
S2144034102068A86066681B2AEE6003D805F1100095
S214403420083410E0A3682B61E168242A696103D060
S21440343005F11800103406E02269AA616069183464
S214403440E86105F120002668066063684360A1686D
S214403450816055E02146FFF7F4FE51E0314648468C
S214403460FFF7D6FC0646002844D054F8041C21F04A
S2144034700103A0F108020BEB03018A4206D150F883
S214403480046C26F0030505EB080A38E0A8F10402B0
S214403490242A28D8132A1ED92368036061681B2A69
S2144034A0416004D800F1080004F1080214E0A06866
S2144034B0B060E368242AF36004D006F1100004F1FB
S2144034C0100209E022693261616906F118007161F3
S2144034D004F1180200E02246136803605168416018
S2144034E09268826002E02146FFF7ABFE48462146DE
S2144034F0FFF77AF94846FFF7BFFE28E0C2465D462A
S214403500C7EB0A000F286A6811D9E91902F00106CC
S214403510374340F0010308186F604B60426842F042
S2144035200106466008314846FFF75EF90AE002F0B9
S214403530010605EB0A014AEA06036B60486840F05C
S21440354001024A604846FFF797FE05F108063046F6
S214403550BDE8F88FC404002038B5064C0023054665
S21440356008462360FDF73EFB431C02D1216801B1AB
S214403570296038BD6409002010B50C46B1F90E101C
S21440358000F0A4F9002803DB226D1318236510BD54
S214403590A38923F48051A18110BD002070472DE9F6
S2144035A0F0411D468B890C4603F4807116460AB2DC
S2144035B007462AB1B4F90E100022022300F074F92F
S2144035C0A089B4F90E1020F48053A38138463246C1
S2144035D02B46BDE8F04100F0D9B810B50C46B1F91D
S2144035E00E1000F061F9431CA38903D123F48052E6
S2144035F0A28110BD43F48051A181206510BDB1F970
S2144036000E1000F0D5B810F8012B11F8013B012A36
S21440361028BF9A42F7D0A2EB03007047034613F840
S214403620012B002AFBD1181A0138704770B50D4699
S2144036301446064618B1836B0BB9FEF797FFA1896F
S214403640A06901F0080213B2A0600BB1206958B916
S21440365030462146FEF72AFE30B1A589092045F0BE
S2144036604001A181306017E0A18901F4005213B2F5
S214403670EDB233B941F40050616EA08121F400529E
S2144036806266206823696169C01A884207DB304653
S2144036902146FEF777FE10B14FF0FF3515E0A268E1
S2144036A02168531EA36001F8015B62692160013006
S2144036B0904204D0A389DB0707D50A2D05D13046B2
S2144036C02146FEF75FFE0028E6D1284670BD0A4632
S2144036D00249034608681946FFF7A8BF18000020AD
S2144036E02DE9F0411D46104B86B0044690460E46E6
S2144036F01F6839B9FFF7EEFA0095034603A920463E
S214403700324606E0FFF7E6FA009503463146204685
S2144037104246B847431C03D100218A2229602260D2
S21440372006B0BDE8F08100BFD408002030B513468F
S214403730044A05460C46106829462246BDE83040F5
S214403740FFF7CEBF1800002049B1FF2A04D98A23CC
S21440375003604FF0FF3070470A70012070470846FC
S21440376070472DE9F3419846074B05460F461646E7
S2144037701C68FFF7AFFACDF8008003463946284666
S2144037803246A047BDE8FC81D408002038B5074C37
S214403790054600202060084611461A46FCF780FD84
S2144037A0431C02D1236803B12B6038BD6409002056
S2144037B038B5064C0023054608462360FDF738FA20
S2144037C0431C02D1216801B1296038BD640900203C
S2144037D070B505460C46002939D0FEF72BFF25B1BB
S2144037E0AB6B13B92846FEF7C1FEB4F90C605EB366
S2144037F028462146FEF7C6FDE26A06463AB1284606
S214403800E169904736EA200628BF4FF0FF36A08988
S21440381000F080010BB21BB128462169FEF7E4FF99
S214403820216B41B104F14002914202D02846FEF796
S214403830DBFF00202063616C21B12846FEF7D4FFF1
S214403840002161640023A381FEF7F5FE00E00E46EA
S214403850304670BD024B01461868FFF7B9BF00BF3F
S2144038601800002038B5074C002305460846114688
S2144038702360FDF7E1F9431C02D1216801B12960BC
S21440388038BD00BF6409002038B5064C0023054605
S21440389008462360FDF7D6F9431C02D1216801B1E2
S2144038A0296038BD6409002038B5074C054600201D
S2144038B02060084611461A46FDF7C8F9431C02D157
S2144038C0236803B12B6038BD6409002038B5074C27
S2144038D0054600202060084611461A46FCF79CFC28
S2144038E0431C02D1236803B12B6038BD6409002015
S2144038F02D2D2055415254202D2D2053414D4735D6
S214403900335F58504C41494E45445F50524F202DEE
S2144039102D20436F6D70696C65643A204175672051
S214403920323020323031342032323A32383A33373D
S214403930200A0A0D414755415244414E444F2053B8
S214403940494E414C20444520454E56494F2E0D0A7F
S2144039500A0D00002D2D2054574F20574952452020
S2144039602D2D53414D4735335F58504C41494E45B8
S214403970445F50524F202D2D20436F6D70696C650B
S214403980643A20417567203230203230313420325C
S214403990323A32383A3337202D2D0A0D0A0D0000C0
S2144039A00A54616D616E686F20646F207665746F2F
S2144039B0723A200925640A0D00000000436F6E74B9
S2144039C06575646F206461206D656D6F7269613ADC
S2144039D0200925730A0D00000A436F6E66696775F5
S2144039E072652073797374656D207469636B207497
S2144039F06F2067657420316D73207469636B207027
S214403A006572696F642E0A0A0D0000002D452D0967
S214403A10545749206D617374657220696E69746984
S214403A20616C697A6174696F6E206661696C656401
S214403A302E0D00002D452D09545749206D61737495
S214403A406572207772697465207061636B65742057
S214403A506661696C65642E0D0000000057726974DB
S214403A60653A094F4B210A0D0000000056616C6F05
S214403A7072206573637269746F3A200925730A0D64
S214403A80000000002D452D09545749206D61737480
S214403A9065722072656164207061636B6574206630
S214403AA061696C65642E0D00526561643A094F4B3E
S214403AB0210A0D0056616C6F72206C69646F3A2063
S214403AC0092573004461746120636F6D706172698B
S214403AD0736F6E3A09556E6D617463686564210D47
S214403AE0000000000A4461746120636F6D7061726B
S214403AF069736F6E3A094D617463686564210A0D97
S214403B00000000002A2A2A2A2A2A2A2A2A2A2A2A78
S214403B102A2A2A2A2A2A2A2A2A2A2A2A2A2A2A2AC0
S214403B202A0A0D004D41554153415420323031351B
S214403B30202D2041524E414C444F204F544156492F
S214403B404F204520544941474F00000020000020A8
S214403B50430020202020202020202020202020201D
S214403B602020303030303030303030303030303030
S214403B703030303132333435363738394142434489
S214403B804546003031323334353637383961626332
S214403B9064656600504F534958002E00F8B500BF84
S214403BA0F8BC08BC9E46704765234000750140003F
S214403BB0F8B500BFF8BC08BC9E4670474D014000B3
S20C403BC030D6FF7F0100000033
S214403BC8BFF35F8F0138FBD1704700BF010000008C
S214403BD800127A00000000002000002000000000CC
S214403BE8000000000C03002074030020DC030020C3
S214403BF80000000000000000000000000000000078
S214403C080000000000000000000000000000000067
S214403C1800000000503B400000000000000000008C
S214403C280000000000000000000000000000000047
S214403C380000000000000000000000000000000037
S214403C480000000000000000000000000000000027
S214403C580000000000000000000000000000000017
S214403C680000000000000000000000000000000007
S214403C7800000000000000000000000000000000F7
S214403C8800000000000000000100000000000000E6
S214403C980E33CDAB34126DE6ECDE05000B000000AB
S214403CA800000000000000000000000000000000C7
S214403CB800000000000000000000000000000000B7
S214403CC800000000000000000000000000000000A7
S214403CD80000000000000000000000000000000097
S21440400800000000000000004153434949000000FA
S2144040180000000000000000000000000000000053
S2144040280000000000000000010000004153434922
S21440403849000000000000000000000000000000EA
S2144040480000000000000000000000009A3B40000E
S2144040589B3B40009B3B40009B3B40009B3B4000BB
S2144040689B3B40009B3B40009B3B40009B3B4000AB
S2144040789B3B4000FFFFFFFFFFFFFFFFFFFFFFFFE9
S214404088FFFF00000000000000000000C4040020FD
S214404098C4040020CC040020CC040020D404002013
S2144040A8D4040020DC040020DC040020E4040020C3
S2144040B8E4040020EC040020EC040020F404002073
S2144040C8F4040020FC040020FC0400200405002022
S2144040D8040500200C0500200C05002014050020CF
S2144040E8140500201C0500201C050020240500207F
S2144040F8240500202C0500202C050020340500202F
S214404108340500203C0500203C05002044050020DE
S214404118440500204C0500204C050020540500208E
S214404128540500205C0500205C050020640500203E
S214404138640500206C0500206C05002074050020EE
S214404148740500207C0500207C050020840500209E
S214404158840500208C0500208C050020940500204E
S214404168940500209C0500209C050020A4050020FE
S214404178A4050020AC050020AC050020B4050020AE
S214404188B4050020BC050020BC050020C40500205E
S214404198C4050020CC050020CC050020D40500200E
S2144041A8D4050020DC050020DC050020E4050020BE
S2144041B8E4050020EC050020EC050020F40500206E
S2144041C8F4050020FC050020FC050020040600201D
S2144041D8040600200C0600200C06002014060020CA
S2144041E8140600201C0600201C060020240600207A
S2144041F8240600202C0600202C060020340600202A
S214404208340600203C0600203C06002044060020D9
S214404218440600204C0600204C0600205406002089
S214404228540600205C0600205C0600206406002039
S214404238640600206C0600206C06002074060020E9
S214404248740600207C0600207C0600208406002099
S214404258840600208C0600208C0600209406002049
S214404268940600209C0600209C060020A4060020F9
S214404278A4060020AC060020AC060020B4060020A9
S214404288B4060020BC060020BC060020C406002059
S214404298C4060020CC060020CC060020D406002009
S2144042A8D4060020DC060020DC060020E4060020B9
S2144042B8E4060020EC060020EC060020F406002069
S2144042C8F4060020FC060020FC0600200407002018
S2144042D8040700200C0700200C07002014070020C5
S2144042E8140700201C0700201C0700202407002075
S2144042F8240700202C0700202C0700203407002025
S214404308340700203C0700203C07002044070020D4
S214404318440700204C0700204C0700205407002084
S214404328540700205C0700205C0700206407002034
S214404338640700206C0700206C07002074070020E4
S214404348740700207C0700207C0700208407002094
S214404358840700208C0700208C0700209407002044
S214404368940700209C0700209C070020A4070020F4
S214404378A4070020AC070020AC070020B4070020A4
S214404388B4070020BC070020BC070020C407002054
S214404398C4070020CC070020CC070020D407002004
S2144043A8D4070020DC070020DC070020E4070020B4
S2144043B8E4070020EC070020EC070020F407002064
S2144043C8F4070020FC070020FC0700200408002013
S2144043D8040800200C0800200C08002014080020C0
S2144043E8140800201C0800201C0800202408002070
S2144043F8240800202C0800202C0800203408002020
S214404408340800203C0800203C08002044080020CF
S214404418440800204C0800204C080020540800207F
S214404428540800205C0800205C080020640800202F
S214404438640800206C0800206C08002074080020DF
S214404448740800207C0800207C080020840800208F
S214404458840800208C0800208C080020940800203F
S214404468940800209C0800209C080020A4080020EF
S214404478A4080020AC080020AC080020B40800209F
S214404488B4080020BC080020BC080020FFFFFFFF3F
S20C404498000002004937400015
S80440085D56
